:020000040000FA
:040000002AEF15F0DE
:100800000043616C63756C61646F7261002B2C2D09
:100810002C2A2C2F004552524F52002E000004501B
:10082000800B0D6E045004240F6E03AE1AEF04F01B
:100830001CEF04F01DEF04F00F800F50D8B423EF2D
:1008400004F025EF04F03AEF04F00F28D8A42BEFC2
:1008500004F02DEF04F035EF04F0000E016E000EF1
:10086000026E000E036E000E046E038E000E046E08
:1008700042EF04F0000E016E000E026E000E036ED9
:10088000000E046E0850800B0E6E0D500E18D8B47A
:100890004CEF04F04EEF04F04FEF04F00D8C0850D5
:1008A00008240E6E07AE57EF04F059EF04F05AEF2C
:1008B00004F00E800E50D8B460EF04F062EF04F044
:1008C00077EF04F00E28D8A468EF04F06AEF04F084
:1008D00072EF04F0000E056E000E066E000E076E3D
:1008E000000E086E078E000E086E7FEF04F0000EFB
:1008F000056E000E066E000E076E000E086E0F509D
:100900000E5CD8B086EF04F088EF04F0AFEF04F08F
:100910000DAC8DEF04F08FEF04F091EF04F0800E3A
:100920000D1A0FC010F00EC00FF010C00EF001C075
:1009300010F005C001F010C005F002C010F006C0B4
:1009400002F010C006F003C010F007C003F010C0A2
:1009500007F004C010F008C004F010C008F0000E4A
:10096000106E0F500EC009F00A6A095E000E0A5A96
:100970000ABEC4EF04F00A5009E11A0E095CD8A0BF
:10098000C4EF04F0C6EF04F0FDEF04F001500210D4
:1009900003100410D8A4CFEF04F0D2EF04F0010E3E
:1009A000D3EF04F0000E106E000E016E000E026E0A
:1009B000000E036E000E046E0EC00FF006EF05F081
:1009C00010A0E5EF04F0E7EF04F0EDEF04F0D890AD
:1009D00010300109106EEFEF04F0D890103201A032
:1009E000F4EF04F0F6EF04F0F7EF04F0108E0434A7
:1009F00004320332023201320F2A0E500F5CD8A0AB
:100A000004EF05F006EF05F0E0EF04F00DBC0BEF8E
:100A100005F00DEF05F04DEF05F00F50D8A413EFE2
:100A200005F015EF05F01FEF05F0000E016E000E4A
:100A3000026E000E036E000E046E6EEF06F005509F
:100A4000012606500222075003220850042204A067
:100A50002CEF05F02EEF05F0DAEF05F010A033EFE4
:100A600005F035EF05F03BEF05F0D89010300109A7
:100A7000106E3DEF05F0D890103201A042EF05F066
:100A800044EF05F045EF05F0108E043404320332D4
:100A9000023201320F2ADAEF05F00550015C0650F0
:100AA0000258075003580450800A096E0850800A03
:100AB0000958D8B05EEF05F060EF05F08BEF05F058
:100AC0000150055C096E025006580A6E0350075823
:100AD0000B6E045008580C6EFF0E0924016EFF0EB9
:100AE0000A20026EFF0E0B20036EFF0E0C20046E18
:100AF000800E0D1A106C1050D8A481EF05F083EF12
:100B000005F093EF05F0010E0126000E02220322EC
:100B1000042293EF05F00550015E0650025A07507B
:100B2000035A0850045A0150021003100410D8A4AC
:100B30009CEF05F09EEF05F0D3EF05F01050D8A420
:100B4000A4EF05F0A6EF05F0D3EF05F0000E016E5F
:100B5000000E026E000E036E000E046E6EEF06F0C5
:100B6000D890013602360336043610AEBAEF05F0DF
:100B7000BCEF05F0BDEF05F0018010A0C2EF05F05D
:100B8000C4EF05F0C8EF05F0D8801036CAEF05F0C5
:100B9000D89010360F50D8B4D0EF05F0D2EF05F052
:100BA000D3EF05F00F0603AED8EF05F0DAEF05F04E
:100BB000B0EF05F0000E0E6E10AEE1EF05F0E3EFC2
:100BC00005F0FBEF05F010C009F07F0E0916D8B450
:100BD000ECEF05F0EEEF05F0F2EF05F0010E0E6E12
:100BE000FBEF05F001A0F7EF05F0F9EF05F0FBEFE3
:100BF00005F0EEEF05F00E50D8B401EF06F003EF6C
:100C000006F02EEF06F0010E0126000E022203224E
:100C1000042204A00EEF06F010EF06F02EEF06F00F
:100C200001C009F002C00AF003C00BF004C00CF0D0
:100C30000C340C320B320A32093209C001F00AC0FE
:100C400002F00BC003F00CC004F00F28D8B42BEF57
:100C500006F02DEF06F02EEF06F00F2A0F28D8B47D
:100C600034EF06F036EF06F03EEF06F00F50D8A452
:100C70003CEF06F03EEF06F050EF06F0000E016E7E
:100C8000000E026E000E036E000E046E0F50D8A40C
:100C90004CEF06F04EEF06F050EF06F0000E0D6E32
:100CA0000FA055EF06F057EF06F05AEF06F0038E4F
:100CB0005BEF06F0039ED8900F30046E0DAE63EF2D
:100CC00006F065EF06F066EF06F0048E01C001F055
:100CD00002C002F003C003F004C004F01200250EAD
:100CE000116E000E126E21C001F022C002F023C06E
:100CF00003F024C004F0C4EC11F001C013F002C0F2
:100D000014F0000E166E0A0E156ECCEC14F0250EC3
:100D1000096E000E0A6EDFEC13F01B0E096E080E52
:100D20000A6EDFEC13F021C019F022C01AF023C0C4
:100D30001BF024C01CF021C001F022C002F023C02F
:100D400003F024C004F0C4EC11F001C00BF002C0A9
:100D50000CF0000E0CBEFF0E0D6E0E6E010EC3ECFD
:100D60000FF00BC01DF00CC01EF00DC01FF00EC028
:100D700020F0A9EC14F019C043F01AC044F01BC0D5
:100D800045F01CC046F043C001F044C002F045C02D
:100D900003F046C004F0000E056E000E066E200E35
:100DA000076E410E086E9CEC08F001C043F002C0D3
:100DB00044F003C045F004C046F0340E116E000E3E
:100DC000126E43C001F044C002F045C003F046C0BB
:100DD00004F0C4EC11F001C013F002C014F0000ED6
:100DE000166E0A0E156ECCEC14F0340E096E000E61
:100DF0000A6EDFEC13F043C019F044C01AF045C08E
:100E00001BF046C01CF043C001F044C002F045C0D6
:100E100003F046C004F0C4EC11F001C00BF002C0B6
:100E20000CF0000E0CBEFF0E0D6E0E6E010EC3EC2C
:100E30000FF00BC01DF00CC01EF00DC01FF00EC057
:100E400020F0A9EC14F019C043F01AC044F01BC004
:100E500045F01CC046F043C001F044C002F045C05C
:100E600003F046C004F0000E056E000E066E200E64
:100E7000076E410E086E9CEC08F001C043F002C002
:100E800044F003C045F004C046F0340E116E000E6D
:100E9000126E43C001F044C002F045C003F046C0EA
:100EA00004F0C4EC11F001C013F002C014F0000E05
:100EB000166E0A0E156ECCEC14F0340E096E000E90
:100EC0000A6EDFEC13F043C019F044C01AF045C0BD
:100ED0001BF046C01CF043C001F044C002F045C006
:100EE00003F046C004F0C4EC11F001C00BF002C0E6
:100EF0000CF0000E0CBEFF0E0D6E0E6E010EC3EC5C
:100F00000FF00BC01DF00CC01EF00DC01FF00EC086
:100F100020F0A9EC14F019C043F01AC044F01BC033
:100F200045F01CC046F043C001F044C002F045C08B
:100F300003F046C004F0000E056E000E066E200E93
:100F4000076E410E086E9CEC08F001C043F002C031
:100F500044F003C045F004C046F0340E116E000E9C
:100F6000126E43C001F044C002F045C003F046C019
:100F700004F0C4EC11F001C013F002C014F0000E34
:100F8000166E0A0E156ECCEC14F0340E096E000EBF
:100F90000A6EDFEC13F043C019F044C01AF045C0EC
:100FA0001BF046C01CF043C001F044C002F045C035
:100FB00003F046C004F0C4EC11F001C00BF002C015
:100FC0000CF0000E0CBEFF0E0D6E0E6E010EC3EC8B
:100FD0000FF00BC01DF00CC01EF00DC01FF00EC0B6
:100FE00020F0A9EC14F019C043F01AC044F01BC063
:100FF00045F01CC046F043C001F044C002F045C0BB
:1010000003F046C004F0000E056E000E066E200EC2
:10101000076E410E086E9CEC08F001C043F002C060
:1010200044F003C045F004C046F0340E116E000ECB
:10103000126E43C001F044C002F045C003F046C048
:1010400004F0C4EC11F001C013F002C014F0000E63
:10105000166E0A0E156ECCEC14F0340E096E000EEE
:101060000A6EDFEC13F043C019F044C01AF045C01B
:101070001BF046C01CF043C001F044C002F045C064
:1010800003F046C004F0C4EC11F001C00BF002C044
:101090000CF0000E0CBEFF0E0D6E0E6E010EC3ECBA
:1010A0000FF00BC01DF00CC01EF00DC01FF00EC0E5
:1010B00020F0A9EC14F019C043F01AC044F01BC092
:1010C00045F01CC046F043C001F044C002F045C0EA
:1010D00003F046C004F0000E056E000E066E200EF2
:1010E000076E410E086E9CEC08F001C043F002C090
:1010F00044F003C045F004C046F0340E116E000EFB
:10110000126E43C001F044C002F045C003F046C077
:1011100004F0C4EC11F001C013F002C014F0000E92
:10112000166E0A0E156ECCEC14F0340E096E000E1D
:101130000A6EDFEC13F012000450800B0D6E0450A9
:101140000424136E03AEA7EF08F0A9EF08F0AAEF8E
:1011500008F013801350D8B4B0EF08F0B2EF08F0E5
:10116000C5EF08F01328D8A4B8EF08F0BAEF08F0DC
:10117000C2EF08F0000E016E000E026E000E036E4C
:10118000000E046E038ECDEF08F0000E016E000E0F
:10119000026E000E036E000E046E0850800B0D1AD6
:1011A00008500824126E07AED8EF08F0DAEF08F006
:1011B000DBEF08F012801250D8B4E1EF08F0E3EF53
:1011C00008F0F6EF08F01228D8A4E9EF08F0EBEFEA
:1011D00008F0F3EF08F0000E056E000E066E000E2C
:1011E000076E000E086E078EFEEF08F0000E056E0B
:1011F000000E066E000E076E000E086E1250D8B478
:1012000004EF09F006EF09F00EEF09F01350D8A42F
:101210000CEF09F00EEF09F018EF09F0000E016E67
:10122000000E026E000E036E000E046EB0EF0AF0A8
:1012300007500102F3CF18F0F4CF19F018500E6EDA
:101240000F6A106A116A1950146E156A166A176AC5
:1012500006500202F3CF18F0F4CF19F018500E2602
:10126000000E0F221022112219501426000E1522F2
:101270001622172205500302F3CF18F0F4CF19F00D
:1012800018500E26000E0F2210221122195014267B
:10129000000E15221622172210C011F00FC010F0F8
:1012A0000EC00FF00E6A05500202F3CF18F0F4CF13
:1012B00019F018500E2619500F22000E1022000EA1
:1012C000112206500102F3CF18F0F4CF19F0185094
:1012D0000E2619500F22000E1022000E112210C0EF
:1012E00011F00FC010F00EC00FF00E6A0550010291
:1012F000F3CF18F0F4CF19F018500E2619500F2222
:10130000000E1022000E112207500202F3CF18F037
:10131000F4CF19F01850142619501522000E162279
:10132000000E172206500302F3CF18F0F4CF19F085
:101330001850142619501522000E1622000E1722DE
:1013400007500302F3CF18F0F4CF19F01850096ECC
:1013500019500A6E0B6A0C6A0BC00CF00AC00BF035
:1013600009C00AF0096A095014260A5015220B50C8
:1013700016220C5017220EC009F00FC00AF010C040
:101380000BF011C00CF0190ECBEF09F0D8900C3215
:101390000B320A320932E82EC6EF09F00950142642
:1013A0000A5015220B5016220C50172210C011F0B3
:1013B0000FC010F00EC00FF00E6A125013C009F0EB
:1013C0000A6A0926000E0A22820E0924186EFF0EF0
:1013D0000A20196E01EF0AF0D89014361536163629
:1013E000173611AEF6EF09F0F8EF09F0F9EF09F052
:1013F0001480D8900E360F36103611361806D8A045
:10140000190616AE06EF0AF008EF0AF0ECEF09F045
:10141000000E126E11AE0FEF0AF011EF0AF035EF69
:101420000AF0FF0E0E14096EFF0E0F140A6EFF0E67
:1014300010140B6E7F0E11140C6E09500A100B1055
:101440000C10D8B426EF0AF028EF0AF02CEF0AF0BF
:10145000010E126E35EF0AF014A031EF0AF033EFEF
:101460000AF035EF0AF028EF0AF01250D8B43BEF3B
:101470000AF03DEF0AF061EF0AF0010E1426000EAB
:1014800015221622172217A048EF0AF04AEF0AF099
:1014900061EF0AF014C009F015C00AF016C00BF095
:1014A00017C00CF00C340C320B320A32093209C06E
:1014B00014F00AC015F00BC016F00CC017F0184A53
:1014C000192A19BE6CEF0AF0195008E11828D8A0A3
:1014D0006CEF0AF06EEF0AF078EF0AF0000E146E6F
:1014E000000E156E800E166E7F0E176EA6EF0AF0B8
:1014F00019BE85EF0AF0195006E11804D8B083EF41
:101500000AF085EF0AF091EF0AF0000E146E000E5B
:10151000156E000E166E000E176E000E0D6EA6EF05
:101520000AF018C013F0FF0E1416FF0E15167F0EEA
:101530001616000E171613A0A0EF0AF0A2EF0AF07D
:10154000A3EF0AF0168ED8901330176E0D501712B5
:1015500014C001F015C002F016C003F017C004F06B
:101560001200000E0001856F000E846F000E7E6F6A
:10157000000E7F6F000E806F000E816F000E836F74
:10158000720ED36EF19E5CEC15F0000E0B6E010E28
:101590000C6E080E0D6E010EEEEC14F0000E0B6ECC
:1015A0000D0E0C6E080E0D6E020EEEEC14F0030E16
:1015B000026EE80E016E84EC14F07CEC15F056EC33
:1015C0000EF00001926F000E026E1E0E016E84EC92
:1015D00014F0200E00019219D8B4F1EF0AF0F3EFE5
:1015E0000AF04BEF0CF02B0E9219D8B4FAEF0AF078
:1015F000FCEF0AF03EEF0BF02D0E9219D8B403EF7A
:101600000BF005EF0BF03EEF0BF02F0E9219D8B454
:101610000CEF0BF00EEF0BF03EEF0BF02A0E9219D1
:10162000D8B415EF0BF017EF0BF03EEF0BF03D0EBB
:101630009219D8B41EEF0BF020EF0BF03EEF0BF039
:101640008351D8A426EF0BF028EF0BF034EF0BF00A
:10165000600E8425D96E000E8521DA6E92C0DFFF00
:10166000844B852B3EEF0BF06A0E8425D96E000E5D
:101670008521DA6E92C0DFFF30EF0BF02B0E92194E
:10168000D8B445EF0BF047EF0BF062EF0BF02D0EE7
:101690009219D8B44EEF0BF050EF0BF062EF0BF055
:1016A0002A0E9219D8B457EF0BF059EF0BF062EFF6
:1016B0000BF02F0E9219D8A460EF0BF062EF0BF035
:1016C0006AEF0BF092C082F0000E856F000E846FFF
:1016D000010E836F3D0E9219D8A471EF0BF073EFDA
:1016E0000BF07FEF0CF0600E0D6E000E0E6E9DEC99
:1016F00010F00DC08AF00EC08BF00FC08CF010C03F
:101700008DF06A0E0D6E000E0E6E9DEC10F00DC089
:101710008EF00EC08FF00FC090F010C091F0C00E90
:101720005EEC14F035EF0CF08E518A25866F8F51E8
:101730008B21876F90518C21886F91518D21896FFA
:10174000740E1B6E000E1C6E86C01DF087C01EF04E
:1017500088C01FF089C020F0000E226E0A0E216E94
:101760000EEC14F0740E096E000E0A6EDFEC13F02E
:101770007FEF0CF08E518A5D866F8F518B59876F8A
:1017800090518C59886F91518D59896FA0EF0BF052
:101790008AC001F08BC002F08CC003F08DC004F051
:1017A0008EC005F08FC006F090C007F091C008F021
:1017B00078EC13F001C086F002C087F003C088F017
:1017C00004C089F0A0EF0BF08E518F119011911190
:1017D000D8A4EDEF0BF0EFEF0BF0F9EF0BF07CEC92
:1017E00015F0150E096E080E0A6EDFEC13F07FEF90
:1017F0000CF08AC00BF08BC00CF08CC00DF08DC0CB
:101800000EF0000EC3EC0FF00BC019F00CC01AF074
:101810000DC01BF00EC01CF08EC00BF08FC00CF082
:1018200090C00DF091C00EF0000EC3EC0FF00BC095
:101830001DF00CC01EF00DC01FF00EC020F089EC92
:101840000CF019C07EF01AC07FF01BC080F01CC0E5
:1018500081F07EC021F07FC022F080C023F081C0E3
:1018600024F06FEC06F07FEF0CF0000182512A0AA1
:10187000D8B4C8EF0BF0010AD8B494EF0BF0060A05
:10188000D8B4BAEF0BF0020AD8B4E4EF0BF049EF8A
:101890000CF07FEF0CF07CEC15F0000E026E0A0EDF
:1018A000016E84EC14F0600E016E000E026E000EEC
:1018B000046E000E036E000E066E0A0E056E0EEC30
:1018C00015F06A0E016E000E026E000E046E000E20
:1018D000036E000E066E0A0E056E0EEC15F0740E09
:1018E000016E000E026E000E046E000E036E000EFE
:1018F000066E0A0E056E0EEC15F087EF0CF0000E6A
:10190000026E010E016E84EC14F0DFEF0AF000EFBE
:1019100000F01C50800B296E1C501C24306E1BAE36
:1019200094EF0CF096EF0CF097EF0CF03080305005
:10193000D8B49DEF0CF09FEF0CF0B4EF0CF0302812
:10194000D8A4A5EF0CF0A7EF0CF0AFEF0CF0000E51
:10195000196E000E1A6E000E1B6E000E1C6E1B8E92
:10196000000E1C6EBCEF0CF0000E196E000E1A6E0D
:10197000000E1B6E000E1C6E2050800B291A20508A
:101980002024316E1FAEC7EF0CF0C9EF0CF0CAEF88
:101990000CF031803150D8B4D0EF0CF0D2EF0CF015
:1019A000E7EF0CF03128D8A4D8EF0CF0DAEF0CF008
:1019B000E2EF0CF0000E1D6E000E1E6E000E1F6E8C
:1019C000000E206E1F8E000E206EEFEF0CF0000E4A
:1019D0001D6E000E1E6E000E1F6E000E206E1D503E
:1019E0001E101F102010D8A4F8EF0CF0FAEF0CF026
:1019F00012EF0DF0000E196E000E1A6E000E1B6E27
:101A0000000E1C6E800E1B127F0E1C1229501C1221
:101A100019C019F01AC01AF01BC01BF01CC01CF032
:101A200055EF0EF03050D8A418EF0DF01AEF0DF06E
:101A300024EF0DF0000E196E000E1A6E000E1B6ED4
:101A4000000E1C6E55EF0EF0315030C021F0226AAE
:101A5000215E000E225A7F0E21242A6E000E2220C3
:101A60002B6E19C025F01AC026F01BC027F01CC031
:101A700028F0000E196E000E1A6E000E1B6E000E7E
:101A80001C6E000E2C6E000E2D6E000E2E6E000EC3
:101A90002F6E000E316E85EF0DF03150D8B453EF3C
:101AA0000DF055EF0DF06CEF0DF0D8902536263681
:101AB00027362836D89019361A361B361C362FAEE4
:101AC00064EF0DF066EF0DF067EF0DF01980D89020
:101AD0002C362D362E362F361D50255C1E5026589E
:101AE0001F50275820502858D8A079EF0DF07BEFD1
:101AF0000DF084EF0DF02F8C1D50255E1E50265AE0
:101B00001F50275A2050285A312A190E31648BEF62
:101B10000DF08DEF0DF04DEF0DF025502610271034
:101B20002810D8B496EF0DF098EF0DF0B0EF0DF04F
:101B30002C80B0EF0DF0D89019361A361B361C36B3
:101B40002FAEA5EF0DF0A7EF0DF0A8EF0DF0198067
:101B5000D8902C362D362E362F362A06D8A02B06B6
:101B60001BAEB5EF0DF0B7EF0DF09BEF0DF0000ED3
:101B7000316E2FAEBEEF0DF0C0EF0DF0E4EF0DF0C3
:101B8000FF0E2C14216EFF0E2D14226EFF0E2E144C
:101B9000236E7F0E2F14246E215022102310241048
:101BA000D8B4D5EF0DF0D7EF0DF0DBEF0DF0010E4F
:101BB000316EE4EF0DF019A0E0EF0DF0E2EF0DF063
:101BC000E4EF0DF0D7EF0DF03150D8B4EAEF0DF09F
:101BD000ECEF0DF010EF0EF0010E1926000E1A2298
:101BE0001B221C221CA0F7EF0DF0F9EF0DF010EFF7
:101BF0000EF019C021F01AC022F01BC023F01CC047
:101C000024F02434243223322232213221C019F02C
:101C100022C01AF023C01BF024C01CF02A4A2B2A31
:101C20002BBE1BEF0EF02B5008E12A28D8A01BEF8B
:101C30000EF01DEF0EF028EF0EF0000E2B6E2A684E
:101C4000000E196E000E1A6E000E1B6E000E1C6E3A
:101C50002BBE35EF0EF02B5006E12A04D8B033EF3F
:101C60000EF035EF0EF043EF0EF0000E2B6E000E6F
:101C70002A6E000E196E000E1A6E000E1B6E000EFC
:101C80001C6E000E296E2AC030F030A04AEF0EF014
:101C90004CEF0EF04FEF0EF01B8E50EF0EF01B9E30
:101CA000D89030301C6E06EF0DF01200F00E936EDF
:101CB000F00E8A6E8150F00B5A6EF00E5A18D8A4AE
:101CC00064EF0EF066EF0EF05AEF0EF08150F00B5D
:101CD0005A6EF00E5A18D8A470EF0EF072EF0EF094
:101CE0005AEF0EF0F00E8A6E8150F00B5A6EF00E25
:101CF0005A18D8B47EEF0EF080EF0EF074EF0EF0AD
:101D00008150F00B5A6EF00E5A18D8B48AEF0EF0CC
:101D10008CEF0EF074EF0EF0000E026E140E016EDA
:101D200084EC14F08150F00B5A6EFE0E8A6E8150D6
:101D3000F00B5A6E5AC058F0F00E5A18D8B4A3EFF0
:101D40000EF0A5EF0EF0B7EF0EF0000E596EACEFEF
:101D50000EF08150F00B586EF00E5818D8A4B3EF67
:101D60000EF0B5EF0EF0A9EF0EF01BEF0FF0FD0E29
:101D70008A6E8150F00B5A6E5AC058F0F00E5A1805
:101D8000D8B4C5EF0EF0C7EF0EF0D9EF0EF0010E8C
:101D9000596ECEEF0EF08150F00B586EF00E5818C1
:101DA000D8A4D5EF0EF0D7EF0EF0CBEF0EF01BEF6F
:101DB0000FF0FB0E8A6E8150F00B5A6E5AC058F02D
:101DC000F00E5A18D8B4E7EF0EF0E9EF0EF0FBEF83
:101DD0000EF0020E596EF0EF0EF08150F00B586EBF
:101DE000F00E5818D8A4F7EF0EF0F9EF0EF0EDEF63
:101DF0000EF01BEF0FF0F70E8A6E8150F00B5A6E4B
:101E00005AC058F0F00E5A18D8B409EF0FF00BEF83
:101E10000FF095EF0EF0030E596E12EF0FF0815098
:101E2000F00B586EF00E5818D8A419EF0FF01BEFF6
:101E30000FF00FEF0FF0E00E5A18D8A422EF0FF0BA
:101E400024EF0FF04DEF0FF05750D8A42AEF0FF00A
:101E50002CEF0FF037EF0FF05950040D470EF3241D
:101E6000D96E000EF420DA6EDF5038EC14F0030E59
:101E70005918D8A43EEF0FF040EF0FF042EF0FF0EB
:101E8000000E576E5950040D470EF324D96E000E04
:101E9000F420DA6EDF50C2EF0FF0D00E5A18D8A43B
:101EA00054EF0FF056EF0FF074EF0FF05750D8A427
:101EB0005CEF0FF05EEF0FF069EF0FF05950040D7B
:101EC000480EF324D96E000EF420DA6EDF5038ECA1
:101ED00014F05950040D480EF324D96E000EF4206E
:101EE000DA6EDF50C2EF0FF0B00E5A18D8A47BEFB5
:101EF0000FF07DEF0FF0A6EF0FF0030E5918D8A4E6
:101F000084EF0FF086EF0FF088EF0FF0010E576EA1
:101F10005750D8A48EEF0FF090EF0FF09BEF0FF01B
:101F20005950040D490EF324D96E000EF420DA6ED8
:101F3000DF5038EC14F05950040D490EF324D96EDB
:101F4000000EF420DA6EDF50C2EF0FF05750D8A425
:101F5000ACEF0FF0AEEF0FF0B9EF0FF05950040DEA
:101F60004A0EF324D96E000EF420DA6EDF5038ECFE
:101F700014F05950040D4A0EF324D96E000EF420CB
:101F8000DA6EDF501200136E1350D8B4CAEF0FF0A0
:101F9000CCEF0FF0EEEF0FF00EBED3EF0FF0D1EF5E
:101FA0000FF0EEEF0FF00BC00FF00CC010F00DC0F3
:101FB00011F00EC012F00F1E101E111E121E0F2A5D
:101FC000000E1022112212220FC015F010C016F0C0
:101FD00011C017F012C018F0F6EF0FF00BC015F09B
:101FE0000CC016F00DC017F00EC018F00B500C10FE
:101FF0000D100E10D8A4FFEF0FF001EF10F00BEF53
:1020000010F0000E0B6E000E0C6E000E0D6E000E2A
:102010000E6E9CEF10F0960E146E15EF10F0142A51
:10202000D8901832173216321532000E15140F6E72
:10203000000E1614106E000E1714116EFE0E1814FA
:10204000126E0F50101011101210D8A42AEF10F0B9
:102050002CEF10F00FEF10F03AEF10F0142A010EF1
:102060001526000E162217221822D8901832173281
:1020700016321532000E15140F6E000E1614106E67
:10208000000E1714116EFF0E1814126E0F50101060
:1020900011101210D8A44FEF10F051EF10F02EEFE6
:1020A00010F059EF10F01406D89015361636173682
:1020B000183617BE5EEF10F060EF10F068EF10F00A
:1020C000020E146066EF10F068EF10F053EF10F09E
:1020D00014B06DEF10F06FEF10F070EF10F0179E6E
:1020E000D890143214C00FF0106A116A126A0FC02F
:1020F00012F0116A106A0F6A0F5015121050161262
:1021000011501712125018121350D8B48AEF10F051
:102110008CEF10F094EF10F00EBE93EF10F091EFF3
:1021200010F094EF10F0188E15C00BF016C00CF0E4
:1021300017C00DF018C00EF012000DC0D9FF0EC070
:10214000DAFFDF501A6E0D4A0E2A200E1A18D8B484
:10215000ACEF10F0AEEF10F09DEF10F0090E1A1872
:10216000D8B4B5EF10F0B7EF10F09DEF10F0000EFF
:10217000166E000E176E000E186E000E196E000E11
:10218000156E2D0E1A18D8A4C8EF10F0CAEF10F073
:10219000D5EF10F0152A0DC0D9FF0EC0DAFFDF50C1
:1021A0001A6E0D4A0E2A04EF11F02B0E1A18D8A43D
:1021B000DCEF10F0DEEF10F004EF11F0CBEF10F0D9
:1021C00016C001F017C002F018C003F019C004F0E7
:1021D0000A0E056E000E066E000E076E000E086EEB
:1021E00078EC13F01AC011F0D00E11261150012412
:1021F000166E000E0220176E000E0320186E000EE1
:102200000420196ECBEF10F01A5043EC15F0D8B043
:102210000CEF11F00EEF11F0E0EF10F01550D8B404
:1022200014EF11F016EF11F031EF11F016C011F0AC
:1022300017C012F018C013F019C014F0111E121EAE
:10224000131E141E112A000E12221322142211C072
:102250000DF012C00EF013C00FF014C010F039EFE3
:1022600011F016C00DF017C00EF018C00FF019C015
:1022700010F0120010C016F011C017F012C018F0C4
:1022800013C019F016C001F017C002F018C003F017
:1022900019C004F014C005F015C006F0000E06BE0B
:1022A000FF0E076E086EA8EC12F001C016F002C017
:1022B00017F003C018F004C019F00E4A0F2A165088
:1022C000171018101910D8A468EF11F06AEF11F068
:1022D00042EF11F00EC0D9FF0FC0DAFF000EDF6E23
:1022E0000E06D8A00F0610C001F011C002F012C0F7
:1022F00003F013C004F014C005F015C006F0000E82
:1023000006BEFF0E076E086EFAEC12F001501A6E50
:1023100010C001F011C002F012C003F013C004F0AD
:1023200014C005F015C006F0000E06BEFF0E076EC5
:10233000086EA8EC12F001C010F002C011F003C04A
:1023400012F004C013F0090E1A64A9EF11F0ABEFFC
:1023500011F0ADEF11F0070E1A26300E1A260EC03E
:10236000D9FF0FC0DAFF1AC0DFFF0E06D8A00F0694
:102370001050111012101310D8A4C1EF11F0C3EFB8
:1023800011F073EF11F01200033404340A6E0A5096
:10239000D8A4CDEF11F0CFEF11F0D9EF11F0000E6E
:1023A000016E000E026E000E036E000E046E46EF0C
:1023B00012F001C005F002C006F003C007F004C02F
:1023C00008F0200EE9EF11F0D890083207320632FB
:1023D0000532E82EE4EF11F00550096E038EFF0E72
:1023E0000116FF0E0216FF0E0316000E0416960EBF
:1023F0000A5E0ABE00EF12F0FEEF11F016EF12F0C7
:102400000A50800A970FD8B008EF12F00AEF12F0C6
:102410000CEF12F0CFEF11F0D890043203320232F9
:1024200001320A3E0CEF12F02EEF12F01F0E0A647A
:102430001CEF12F01EEF12F026EF12F0CFEF11F0AA
:10244000D89001360236033604360A060A50D8A45C
:102450002CEF12F02EEF12F020EF12F00950D8B44A
:1024600034EF12F036EF12F03EEF12F0041E031EAE
:10247000021E016C000E02220322042201C001F0A0
:1024800002C002F003C003F004C004F012000AC04E
:102490000EF00BC00FF00EC001F00FC002F00CC028
:1024A00003F00DC004F03EEC13F001C00EF002C0CA
:1024B0000FF0084A092A0E500F10D8A462EF12F04C
:1024C00064EF12F04BEF12F008C0D9FF09C0DAFF39
:1024D000000EDF6E0806D8A009060AC001F00BC086
:1024E00002F00CC003F00DC004F0ADEC13F001508D
:1024F000106E0AC001F00BC002F00CC003F00DC05A
:1025000004F03EEC13F001C00AF002C00BF0090E1B
:1025100010648DEF12F08FEF12F091EF12F0070EB2
:102520001026300E102608C0D9FF09C0DAFF10C0EF
:10253000DFFF0806D8A009060A500B10D8A4A3EFA5
:1025400012F0A5EF12F06DEF12F0084A092A1200FE
:10255000000E096E000E0A6E000E0B6E000E0C6E61
:102560000550061007100810D8B4B9EF12F0BBEFF1
:1025700012F0F1EF12F0010E0D6EC5EF12F0D890CF
:1025800005360636073608360D2A08AECAEF12F0B1
:10259000CCEF12F0BFEF12F0D89009360A360B36A6
:1025A0000C360550015C065002580750035808507D
:1025B0000458D8A0DEEF12F0E0EF12F0E9EF12F0CD
:1025C0000550015E0650025A0750035A0850045A3B
:1025D0000980D89008320732063205320D2ECCEF32
:1025E00012F009C001F00AC002F00BC003F00CC0E9
:1025F00004F012000550061007100810D8B403EFBD
:1026000013F005EF13F035EF13F0010E096E0FEF25
:1026100013F0D8900536063607360836092A08AE74
:1026200014EF13F016EF13F009EF13F00550015CEF
:10263000065002580750035808500458D8A023EFFA
:1026400013F025EF13F02DEF13F00550015E065047
:10265000025A0750035A0850045AD89008320732D9
:1026600006320532092E16EF13F001C001F002C048
:1026700002F003C003F004C004F01200000E066E66
:10268000000E056E03500410D8B449EF13F04BEF61
:1026900013F073EF13F0010E076E53EF13F0D890A1
:1026A00003360436072A04AE58EF13F05AEF13F03E
:1026B0004FEF13F0D890053606360350015C0450F6
:1026C0000258D8A066EF13F068EF13F06DEF13F027
:1026D0000350015E0450025A0580D8900432033240
:1026E000072E5AEF13F005C001F006C002F01200E9
:1026F000000E096E000E0A6E000E0B6E000E0C6EC0
:1027000001A085EF13F087EF13F08FEF13F0055062
:10271000092606500A2207500B2208500C22D89096
:102720000536063607360836D890043203320232B0
:1027300001320150021003100410D8A4A2EF13F0CC
:10274000A4EF13F080EF13F009C001F00AC002F00B
:102750000BC003F00CC004F0120003500410D8B4F6
:10276000B4EF13F0B6EF13F0DAEF13F0010E056ECD
:10277000BEEF13F0D89003360436052A04AEC3EF3B
:1027800013F0C5EF13F0BAEF13F00350015C0450DF
:102790000258D8A0CEEF13F0D0EF13F0D4EF13F01F
:1027A0000350015E0450025AD89004320332052EC1
:1027B000C5EF13F001C001F002C002F01200F5EF06
:1027C00013F009C0F6FF0AC0F7FFF86A070EF764B6
:1027D00003D00800F55005D0F6CFD9FFF7CFDAFFC8
:1027E000DF5038EC14F0094A0A2A09C0F6FF0AC083
:1027F000F7FFF86A070EF76403D00800F55005D01C
:10280000F6CFD9FFF7CFDAFFDF500009D8A40BEFDE
:1028100014F00DEF14F0E1EF13F0120020BE15EFED
:1028200014F013EF14F025EF14F01BC0D9FF1CC0F7
:10283000DAFF2D0EDF6E1B4A1C2A201E1F1E1E1ED5
:102840001D6C000E1E221F2220221BC00EF01CC079
:102850000FF01DC010F01EC011F01FC012F020C0FC
:1028600013F021C014F022C015F03AEC11F0120060
:10287000086E08C007F0F00E07168C500F0B0710FB
:102880008C6E8C808C8200F08C92000E026E010E99
:10289000016E84EC14F008C007F0073AF00E07163A
:1028A0008C500F0B07108C6E8C8200F08C92000EF7
:1028B000026E030E016E84EC14F01200086E08C064
:1028C00007F0F00E07168C500F0B07108C6E8C90D3
:1028D0008C8200F08C92000E026E010E016E84EC70
:1028E00014F008C007F0073AF00E07168C500F0BD3
:1028F00007108C6E8C8200F08C92000E026E030E1C
:10290000016E84EC14F01200000E046E000E036ED3
:102910009DEF14F0000E066E000E056E054A062AA5
:10292000065009E1A50E055CD8A099EF14F09BEFC5
:1029300014F08EEF14F0034A042A0150035C025095
:102940000458D8A0A6EF14F0A8EF14F08AEF14F002
:102950001200000E1D1A000E1E1A000E1F1A800E05
:10296000201A19C001F01AC002F01BC003F01CC0ED
:1029700004F01DC005F01EC006F01FC007F020C007
:1029800008F00FEC04F001C019F002C01AF003C007
:102990001BF004C01CF0120014BED3EF14F0D1EFF2
:1029A00014F0DFEF14F011C0D9FF12C0DAFF2D0EC2
:1029B000DF6E114A122A136C141ED8B0142A11C0EB
:1029C00008F012C009F013C00AF014C00BF015C0D3
:1029D0000CF016C00DF047EC12F012000E6E020E55
:1029E0000E60F5EF14F0F7EF14F000EF15F00B5058
:1029F0000F0B80090F6E0F505EEC14F007EF15F00F
:102A00000B500F0BC0090F6E0F505EEC14F00CC092
:102A100009F00DC00AF0DFEC13F0120001C007F05E
:102A200002C008F01CEF15F007C0D9FF08C0DAFF9C
:102A300003C0DFFF074A082A0506D8A006060528B6
:102A400006E10628D8A427EF15F029EF15F014EFBA
:102A500015F01200E80EF66E2A0EF76E000EF86EF4
:102A600000EE47F010EE10F00900F5CFEEFFE55054
:102A7000E150FAE15A6A596A586A576A000EF86ECC
:102A80000001B1EF0AF0036E000E026E3A0E036011
:102A90004CEF15F04EEF15F058EF15F02F0E0364C4
:102AA00054EF15F056EF15F058EF15F0010E026EC9
:102AB00002C001F001301200000E956E000E026E91
:102AC0000F0E016E84EC14F0020E5EEC14F0280E72
:102AD0005EEC14F0010E5EEC14F00C0E5EEC14F0E3
:102AE000060E5EEC14F012003132332B3435362DE5
:102AF0003738392A20303D2F010E5EEC14F01200D9
:020000040020DA
:08000000FFFFFFFFFFFFFFFF00
:020000040030CA
:0E00000000091F1EFF0181FF0FC00FE00F401F
:00000001FF
