:020000040000FA
:0400000070EF13F09A
:100800000043616C63756C61646F7261002B2C2D09
:100810002C2A2C2F004552524F52002E000004501B
:10082000800B0D6E045004240F6E03AE1AEF04F01B
:100830001CEF04F01DEF04F00F800F50D8B423EF2D
:1008400004F025EF04F03AEF04F00F28D8A42BEFC2
:1008500004F02DEF04F035EF04F0000E016E000EF1
:10086000026E000E036E000E046E038E000E046E08
:1008700042EF04F0000E016E000E026E000E036ED9
:10088000000E046E0850800B0E6E0D500E18D8B47A
:100890004CEF04F04EEF04F04FEF04F00D8C0850D5
:1008A00008240E6E07AE57EF04F059EF04F05AEF2C
:1008B00004F00E800E50D8B460EF04F062EF04F044
:1008C00077EF04F00E28D8A468EF04F06AEF04F084
:1008D00072EF04F0000E056E000E066E000E076E3D
:1008E000000E086E078E000E086E7FEF04F0000EFB
:1008F000056E000E066E000E076E000E086E0F509D
:100900000E5CD8B086EF04F088EF04F0AFEF04F08F
:100910000DAC8DEF04F08FEF04F091EF04F0800E3A
:100920000D1A0FC010F00EC00FF010C00EF001C075
:1009300010F005C001F010C005F002C010F006C0B4
:1009400002F010C006F003C010F007C003F010C0A2
:1009500007F004C010F008C004F010C008F0000E4A
:10096000106E0F500EC009F00A6A095E000E0A5A96
:100970000ABEC4EF04F00A5009E11A0E095CD8A0BF
:10098000C4EF04F0C6EF04F0FDEF04F001500210D4
:1009900003100410D8A4CFEF04F0D2EF04F0010E3E
:1009A000D3EF04F0000E106E000E016E000E026E0A
:1009B000000E036E000E046E0EC00FF006EF05F081
:1009C00010A0E5EF04F0E7EF04F0EDEF04F0D890AD
:1009D00010300109106EEFEF04F0D890103201A032
:1009E000F4EF04F0F6EF04F0F7EF04F0108E0434A7
:1009F00004320332023201320F2A0E500F5CD8A0AB
:100A000004EF05F006EF05F0E0EF04F00DBC0BEF8E
:100A100005F00DEF05F04DEF05F00F50D8A413EFE2
:100A200005F015EF05F01FEF05F0000E016E000E4A
:100A3000026E000E036E000E046E6EEF06F005509F
:100A4000012606500222075003220850042204A067
:100A50002CEF05F02EEF05F0DAEF05F010A033EFE4
:100A600005F035EF05F03BEF05F0D89010300109A7
:100A7000106E3DEF05F0D890103201A042EF05F066
:100A800044EF05F045EF05F0108E043404320332D4
:100A9000023201320F2ADAEF05F00550015C0650F0
:100AA0000258075003580450800A096E0850800A03
:100AB0000958D8B05EEF05F060EF05F08BEF05F058
:100AC0000150055C096E025006580A6E0350075823
:100AD0000B6E045008580C6EFF0E0924016EFF0EB9
:100AE0000A20026EFF0E0B20036EFF0E0C20046E18
:100AF000800E0D1A106C1050D8A481EF05F083EF12
:100B000005F093EF05F0010E0126000E02220322EC
:100B1000042293EF05F00550015E0650025A07507B
:100B2000035A0850045A0150021003100410D8A4AC
:100B30009CEF05F09EEF05F0D3EF05F01050D8A420
:100B4000A4EF05F0A6EF05F0D3EF05F0000E016E5F
:100B5000000E026E000E036E000E046E6EEF06F0C5
:100B6000D890013602360336043610AEBAEF05F0DF
:100B7000BCEF05F0BDEF05F0018010A0C2EF05F05D
:100B8000C4EF05F0C8EF05F0D8801036CAEF05F0C5
:100B9000D89010360F50D8B4D0EF05F0D2EF05F052
:100BA000D3EF05F00F0603AED8EF05F0DAEF05F04E
:100BB000B0EF05F0000E0E6E10AEE1EF05F0E3EFC2
:100BC00005F0FBEF05F010C009F07F0E0916D8B450
:100BD000ECEF05F0EEEF05F0F2EF05F0010E0E6E12
:100BE000FBEF05F001A0F7EF05F0F9EF05F0FBEFE3
:100BF00005F0EEEF05F00E50D8B401EF06F003EF6C
:100C000006F02EEF06F0010E0126000E022203224E
:100C1000042204A00EEF06F010EF06F02EEF06F00F
:100C200001C009F002C00AF003C00BF004C00CF0D0
:100C30000C340C320B320A32093209C001F00AC0FE
:100C400002F00BC003F00CC004F00F28D8B42BEF57
:100C500006F02DEF06F02EEF06F00F2A0F28D8B47D
:100C600034EF06F036EF06F03EEF06F00F50D8A452
:100C70003CEF06F03EEF06F050EF06F0000E016E7E
:100C8000000E026E000E036E000E046E0F50D8A40C
:100C90004CEF06F04EEF06F050EF06F0000E0D6E32
:100CA0000FA055EF06F057EF06F05AEF06F0038E4F
:100CB0005BEF06F0039ED8900F30046E0DAE63EF2D
:100CC00006F065EF06F066EF06F0048E01C001F055
:100CD00002C002F003C003F004C004F0120004508C
:100CE000800B0D6E04500424136E03AE7AEF06F0F1
:100CF0007CEF06F07DEF06F013801350D8B483EF3D
:100D000006F085EF06F098EF06F01328D8A48BEFD5
:100D100006F08DEF06F095EF06F0000E016E000E66
:100D2000026E000E036E000E046E038EA0EF06F03E
:100D3000000E016E000E026E000E036E000E046EB9
:100D40000850800B0D1A08500824126E07AEABEF46
:100D500006F0ADEF06F0AEEF06F012801250D8B4F8
:100D6000B4EF06F0B6EF06F0C9EF06F01228D8A4EB
:100D7000BCEF06F0BEEF06F0C6EF06F0000E056E03
:100D8000000E066E000E076E000E086E078ED1EF85
:100D900006F0000E056E000E066E000E076E000EC9
:100DA000086E1250D8B4D7EF06F0D9EF06F0E1EF95
:100DB00006F01350D8A4DFEF06F0E1EF06F0EBEFFA
:100DC00006F0000E016E000E026E000E036E000EA5
:100DD000046E83EF08F007500102F3CF18F0F4CF50
:100DE00019F018500E6E0F6A106A116A1950146EBD
:100DF000156A166A176A06500202F3CF18F0F4CF8C
:100E000019F018500E26000E0F2210221122195030
:100E10001426000E15221622172205500302F3CFC6
:100E200018F0F4CF19F018500E26000E0F221022E1
:100E3000112219501426000E15221622172210C056
:100E400011F00FC010F00EC00FF00E6A0550020234
:100E5000F3CF18F0F4CF19F018500E2619500F22C6
:100E6000000E1022000E112206500102F3CF18F0DE
:100E7000F4CF19F018500E2619500F22000E102230
:100E8000000E112210C011F00FC010F00EC00FF0B4
:100E90000E6A05500102F3CF18F0F4CF19F0185084
:100EA0000E2619500F22000E1022000E112207509C
:100EB0000202F3CF18F0F4CF19F01850142619508D
:100EC0001522000E1622000E172206500302F3CF41
:100ED00018F0F4CF19F01850142619501522000EEE
:100EE0001622000E172207500302F3CF18F0F4CF9A
:100EF00019F01850096E19500A6E0B6A0C6A0BC073
:100F00000CF00AC00BF009C00AF0096A0950142657
:100F10000A5015220B5016220C5017220EC009F051
:100F20000FC00AF010C00BF011C00CF0190E9EEFAC
:100F300007F0D8900C320B320A320932E82E99EFC2
:100F400007F0095014260A5015220B5016220C5097
:100F5000172210C011F00FC010F00EC00FF00E6A73
:100F6000125013C009F00A6A0926000E0A22820EE6
:100F70000924186EFF0E0A20196ED4EF07F0D890DE
:100F8000143615361636173611AEC9EF07F0CBEF0B
:100F900007F0CCEF07F01480D8900E360F361036DD
:100FA00011361806D8A0190616AED9EF07F0DBEFF8
:100FB00007F0BFEF07F0000E126E11AEE2EF07F080
:100FC000E4EF07F008EF08F0FF0E0E14096EFF0EB5
:100FD0000F140A6EFF0E10140B6E7F0E11140C6EA0
:100FE00009500A100B100C10D8B4F9EF07F0FBEF02
:100FF00007F0FFEF07F0010E126E08EF08F014A0E3
:1010000004EF08F006EF08F008EF08F0FBEF07F038
:101010001250D8B40EEF08F010EF08F034EF08F0DB
:10102000010E1426000E15221622172217A01BEF00
:1010300008F01DEF08F034EF08F014C009F015C0F7
:101040000AF016C00BF017C00CF00C340C320B3247
:101050000A32093209C014F00AC015F00BC016F0AC
:101060000CC017F0184A192A19BE3FEF08F01950A2
:1010700008E11828D8A03FEF08F041EF08F04BEF47
:1010800008F0000E146E000E156E800E166E7F0EA8
:10109000176E79EF08F019BE58EF08F0195006E105
:1010A0001804D8B056EF08F058EF08F064EF08F0D5
:1010B000000E146E000E156E000E166E000E176EEA
:1010C000000E0D6E79EF08F018C013F0FF0E141625
:1010D000FF0E15167F0E1616000E171613A073EFCF
:1010E00008F075EF08F076EF08F0168ED890133000
:1010F000176E0D50171214C001F015C002F016C083
:1011000003F017C004F01200000E0001856F000EFE
:10111000846F000E7E6F000E7F6F000E806F000EDA
:10112000816F000E836F720ED36EF19E88EC13F008
:10113000000E0B6E010E0C6E080E0D6E010E1BECF8
:1011400013F0000E0B6E0D0E0C6E080E0D6E020EDF
:101150001BEC13F0070E026ED00E016EB1EC12F014
:10116000A8EC13F0800E8BEC12F02CEC0CF00001CC
:10117000926F000E026E1E0E016EB1EC12F0200E88
:1011800000019219D8B4C7EF08F0C9EF08F021EFB9
:101190000AF02B0E9219D8B4D0EF08F0D2EF08F075
:1011A00014EF09F02D0E9219D8B4D9EF08F0DBEF47
:1011B00008F014EF09F02F0E9219D8B4E2EF08F0FE
:1011C000E4EF08F014EF09F02A0E9219D8B4EBEF0F
:1011D00008F0EDEF08F014EF09F03D0E9219D8B4C5
:1011E000F4EF08F0F6EF08F014EF09F08351D8A4FB
:1011F000FCEF08F0FEEF08F00AEF09F0600E84251E
:10120000D96E000E8521DA6E92C0DFFF844B852BEC
:1012100014EF09F06A0E8425D96E000E8521DA6E6E
:1012200092C0DFFF06EF09F02B0E9219D8B41BEF26
:1012300009F01DEF09F038EF09F02D0E9219D8B41E
:1012400024EF09F026EF09F038EF09F02A0E921981
:10125000D8B42DEF09F02FEF09F038EF09F02F0E79
:101260009219D8A436EF09F038EF09F040EF09F0F1
:1012700092C082F0000E856F000E846F010E836FA6
:101280003D0E9219D8A447EF09F049EF09F055EF48
:101290000AF0600E0D6E000E0E6E3DEC0EF00DC0ED
:1012A0008AF00EC08BF00FC08CF010C08DF06A0E6B
:1012B0000D6E000E0E6E3DEC0EF00DC08EF00EC0E9
:1012C0008FF00FC090F010C091F0C00E8BEC12F0B8
:1012D0000BEF0AF08E518A25866F8F518B21876F15
:1012E00090518C21886F91518D21896F740E1B6EE6
:1012F000000E1C6E86C01DF087C01EF088C01FF057
:1013000089C020F0000E226E0A0E216E3BEC12F016
:10131000740E096E000E0A6E0CEC12F055EF0AF016
:101320008E518A5D866F8F518B59876F90518C5982
:10133000886F91518D59896F76EF09F08AC001F05D
:101340008BC002F08CC003F08DC004F08EC005F09D
:101350008FC006F090C007F091C008F0A5EC11F026
:1013600001C086F002C087F003C088F004C089F095
:1013700076EF09F08E518F1190119111D8A4C3EF1F
:1013800009F0C5EF09F0CFEF09F0A8EC13F0150E46
:10139000096E080E0A6E0CEC12F055EF0AF08AC0C6
:1013A0000BF08BC00CF08CC00DF08DC00EF0000E59
:1013B00063EC0DF00BC019F00CC01AF00DC01BF05F
:1013C0000EC01CF08EC00BF08FC00CF090C00DF062
:1013D00091C00EF0000E63EC0DF00BC01DF00CC0C0
:1013E0001EF00DC01FF00EC020F05FEC0AF019C017
:1013F0007EF01AC07FF01BC080F01CC081F07EC060
:1014000021F07FC022F080C023F081C024F0DAEC0C
:101410000EF055EF0AF0000182512A0AD8B49EEF6F
:1014200009F0010AD8B46AEF09F0060AD8B490EFBF
:1014300009F0020AD8B4BAEF09F01FEF0AF055EF2D
:101440000AF0A8EC13F0000E026E0A0E016EB1EC69
:1014500012F0600E016E000E026E000E046E000EA1
:10146000036E000E066E0A0E056E3BEC13F06A0E5C
:10147000016E000E026E000E046E000E036E000E72
:10148000066E0A0E056E3BEC13F0740E016E000E34
:10149000026E000E046E000E036E000E066E0A0E43
:1014A000056E3BEC13F05DEF0AF0000E026E010ECC
:1014B000016EB1EC12F0B5EF08F000EF00F01C5037
:1014C000800B296E1C501C24306E1BAE6AEF0AF094
:1014D0006CEF0AF06DEF0AF030803050D8B473EF43
:1014E0000AF075EF0AF08AEF0AF03028D8A47BEFF3
:1014F0000AF07DEF0AF085EF0AF0000E196E000E7B
:101500001A6E000E1B6E000E1C6E1B8E000E1C6EE3
:1015100092EF0AF0000E196E000E1A6E000E1B6E8E
:10152000000E1C6E2050800B291A20502024316E92
:101530001FAE9DEF0AF09FEF0AF0A0EF0AF0318096
:101540003150D8B4A6EF0AF0A8EF0AF0BDEF0AF0C8
:101550003128D8A4AEEF0AF0B0EF0AF0B8EF0AF0E5
:10156000000E1D6E000E1E6E000E1F6E000E206E11
:101570001F8E000E206EC5EF0AF0000E1D6E000ECD
:101580001E6E000E1F6E000E206E1D501E101F10CE
:101590002010D8A4CEEF0AF0D0EF0AF0E8EF0AF05E
:1015A000000E196E000E1A6E000E1B6E000E1C6EE1
:1015B000800E1B127F0E1C1229501C1219C019F02C
:1015C0001AC01AF01BC01BF01CC01CF02BEF0CF053
:1015D0003050D8A4EEEF0AF0F0EF0AF0FAEF0AF07C
:1015E000000E196E000E1A6E000E1B6E000E1C6EA1
:1015F0002BEF0CF0315030C021F0226A215E000E3A
:10160000225A7F0E21242A6E000E22202B6E19C032
:1016100025F01AC026F01BC027F01CC028F0000ED1
:10162000196E000E1A6E000E1B6E000E1C6E000E60
:101630002C6E000E2D6E000E2E6E000E2F6E000E04
:10164000316E5BEF0BF03150D8B429EF0BF02BEF7C
:101650000BF042EF0BF0D890253626362736283689
:10166000D89019361A361B361C362FAE3AEF0BF0CF
:101670003CEF0BF03DEF0BF01980D8902C362D3657
:101680002E362F361D50255C1E5026581F502758C9
:1016900020502858D8A04FEF0BF051EF0BF05AEF25
:1016A0000BF02F8C1D50255E1E50265A1F50275AB6
:1016B0002050285A312A190E316461EF0BF063EF84
:1016C0000BF023EF0BF02550261027102810D8B46C
:1016D0006CEF0BF06EEF0BF086EF0BF02C8086EFCB
:1016E0000BF0D89019361A361B361C362FAE7BEF0E
:1016F0000BF07DEF0BF07EEF0BF01980D8902C36BD
:101700002D362E362F362A06D8A02B061BAE8BEF91
:101710000BF08DEF0BF071EF0BF0000E316E2FAE72
:1017200094EF0BF096EF0BF0BAEF0BF0FF0E2C14CA
:10173000216EFF0E2D14226EFF0E2E14236E7F0ECF
:101740002F14246E2150221023102410D8B4ABEF94
:101750000BF0ADEF0BF0B1EF0BF0010E316EBAEF05
:101760000BF019A0B6EF0BF0B8EF0BF0BAEF0BF0DF
:10177000ADEF0BF03150D8B4C0EF0BF0C2EF0BF06F
:10178000E6EF0BF0010E1926000E1A221B221C2276
:101790001CA0CDEF0BF0CFEF0BF0E6EF0BF019C074
:1017A00021F01AC022F01BC023F01CC024F0243406
:1017B000243223322232213221C019F022C01AF001
:1017C00023C01BF024C01CF02A4A2B2A2BBEF1EFA9
:1017D0000BF02B5008E12A28D8A0F1EF0BF0F3EF23
:1017E0000BF0FEEF0BF0000E2B6E2A68000E196E48
:1017F000000E1A6E000E1B6E000E1C6E2BBE0BEF41
:101800000CF02B5006E12A04D8B009EF0CF00BEFD6
:101810000CF019EF0CF0000E2B6E000E2A6E000E6D
:10182000196E000E1A6E000E1B6E000E1C6E000E5E
:10183000296E2AC030F030A020EF0CF022EF0CF01F
:1018400025EF0CF01B8E26EF0CF01B9ED89030304D
:101850001C6EDCEF0AF01200F00E936EF00E8A6E32
:101860008150F00B596EF00E5918D8A43AEF0CF0D5
:101870003CEF0CF030EF0CF08150F00B596EF00E95
:101880005918D8A446EF0CF048EF0CF030EF0CF0EC
:10189000F00E8A6E8150F00B596EF00E5918D8B4C4
:1018A00054EF0CF056EF0CF04AEF0CF08150F00BB7
:1018B000596EF00E5918D8B460EF0CF062EF0CF0CE
:1018C0004AEF0CF0000E026E140E016EB1EC12F035
:1018D0008150F00B596EFE0E8A6E8150F00B596EDE
:1018E00059C057F0F00E5918D8B479EF0CF07BEFCF
:1018F0000CF08DEF0CF0000E586E82EF0CF0815062
:10190000F00B576EF00E5718D8A489EF0CF08BEF40
:101910000CF07FEF0CF0F1EF0CF0FD0E8A6E8150B1
:10192000F00B596E59C057F0F00E5918D8B49BEF10
:101930000CF09DEF0CF0AFEF0CF0010E586EA4EF21
:101940000CF08150F00B576EF00E5718D8A4ABEF87
:101950000CF0ADEF0CF0A1EF0CF0F1EF0CF0FB0E82
:101960008A6E8150F00B596E59C057F0F00E59181D
:10197000D8B4BDEF0CF0BFEF0CF0D1EF0CF0020EBD
:10198000586EC6EF0CF08150F00B576EF00E5718E2
:10199000D8A4CDEF0CF0CFEF0CF0C3EF0CF0F1EFCB
:1019A0000CF0F70E8A6E8150F00B596E59C057F04B
:1019B000F00E5918D8B4DFEF0CF0E1EF0CF06BEF3C
:1019C0000CF0030E586EE8EF0CF08150F00B576EE0
:1019D000F00E5718D8A4EFEF0CF0F1EF0CF0E5EF94
:1019E0000CF0E00E5918D8A4F8EF0CF0FAEF0CF058
:1019F00010EF0DF05850040D470EF324D96E000E71
:101A0000F420DA6EDF5065EC12F05850040D470EEA
:101A1000F324D96E000EF420DA6EDF5062EF0DF081
:101A2000D00E5918D8A417EF0DF019EF0DF02FEFC5
:101A30000DF05850040D480EF324D96E000EF4201A
:101A4000DA6EDF5065EC12F05850040D480EF324A6
:101A5000D96E000EF420DA6EDF5062EF0DF0B00E9A
:101A60005918D8A436EF0DF038EF0DF04EEF0DF009
:101A70005850040D490EF324D96E000EF420DA6E8E
:101A8000DF5065EC12F05850040D490EF324D96E66
:101A9000000EF420DA6EDF5062EF0DF05850040DA6
:101AA0004A0EF324D96E000EF420DA6EDF5065EC96
:101AB00012F05850040D4A0EF324D96E000EF42093
:101AC000DA6EDF501200136E1350D8B46AEF0DF0C7
:101AD0006CEF0DF08EEF0DF00EBE73EF0DF071EFA9
:101AE0000DF08EEF0DF00BC00FF00CC010F00DC01C
:101AF00011F00EC012F00F1E101E111E121E0F2A22
:101B0000000E1022112212220FC015F010C016F084
:101B100011C017F012C018F096EF0DF00BC015F0C1
:101B20000CC016F00DC017F00EC018F00B500C10C2
:101B30000D100E10D8A49FEF0DF0A1EF0DF0ABEF3C
:101B40000DF0000E0B6E000E0C6E000E0D6E000EF2
:101B50000E6E3CEF0EF0960E146EB5EF0DF0142ADB
:101B6000D8901832173216321532000E15140F6E37
:101B7000000E1614106E000E1714116EFE0E1814BF
:101B8000126E0F50101011101210D8A4CAEF0DF0E1
:101B9000CCEF0DF0AFEF0DF0DAEF0DF0142A010EDF
:101BA0001526000E162217221822D8901832173246
:101BB00016321532000E15140F6E000E1614106E2C
:101BC000000E1714116EFF0E1814126E0F50101025
:101BD00011101210D8A4EFEF0DF0F1EF0DF0CEEFD1
:101BE0000DF0F9EF0DF01406D890153616361736AD
:101BF000183617BEFEEF0DF000EF0EF008EF0EF0F6
:101C0000020E146006EF0EF008EF0EF0F3EF0DF089
:101C100014B00DEF0EF00FEF0EF010EF0EF0179E58
:101C2000D890143214C00FF0106A116A126A0FC0F3
:101C300012F0116A106A0F6A0F5015121050161226
:101C400011501712125018121350D8B42AEF0EF078
:101C50002CEF0EF034EF0EF00EBE33EF0EF031EF3E
:101C60000EF034EF0EF0188E15C00BF016C00CF00D
:101C700017C00DF018C00EF012000DC0D9FF0EC035
:101C8000DAFFDF501A6E0D4A0E2A200E1A18D8B449
:101C90004CEF0EF04EEF0EF03DEF0EF0090E1A185D
:101CA000D8B455EF0EF057EF0EF03DEF0EF0000EEA
:101CB000166E000E176E000E186E000E196E000ED6
:101CC000156E2D0E1A18D8A468EF0EF06AEF0EF0FC
:101CD00075EF0EF0152A0DC0D9FF0EC0DAFFDF50E8
:101CE0001A6E0D4A0E2AA4EF0EF02B0E1A18D8A465
:101CF0007CEF0EF07EEF0EF0A4EF0EF06BEF0EF027
:101D000016C001F017C002F018C003F019C004F0AB
:101D10000A0E056E000E066E000E076E000E086EAF
:101D2000A5EC11F01AC011F0D00E112611500124AB
:101D3000166E000E0220176E000E0320186E000EA5
:101D40000420196E6BEF0EF01A5057EC13F0D8B058
:101D5000ACEF0EF0AEEF0EF080EF0EF01550D8B4F1
:101D6000B4EF0EF0B6EF0EF0D1EF0EF016C011F09A
:101D700017C012F018C013F019C014F0111E121E73
:101D8000131E141E112A000E12221322142211C037
:101D90000DF012C00EF013C00FF014C010F0D9EF08
:101DA0000EF016C00DF017C00EF018C00FF019C0DD
:101DB00010F0120021C019F022C01AF023C01BF04D
:101DC00024C01CF021C001F022C002F023C003F0A7
:101DD00024C004F0F1EC0FF001C00BF002C00CF0D5
:101DE000000E0CBEFF0E0D6E0E6E010E63EC0DF0BC
:101DF0000BC01DF00CC01EF00DC01FF00EC020F077
:101E0000D6EC12F019C043F01AC044F01BC045F0E4
:101E10001CC046F043C001F044C002F045C003F0CE
:101E200046C004F0000E056E000E066EC80E076E6A
:101E3000420E086E6FEC06F001C043F002C044F0A1
:101E400003C045F004C046F0250E116E000E126E60
:101E500021C001F022C002F023C003F024C004F02E
:101E6000F1EC0FF001C013F002C014F0000E166E7A
:101E70000A0E156EF9EC12F0250E096E000E0A6EB0
:101E80000CEC12F01B0E096E080E0A6E0CEC12F030
:101E9000340E116E000E126E43C001F044C002F009
:101EA00045C003F046C004F0F1EC0FF001C013F0A0
:101EB00002C014F0000E166E0A0E156EF9EC12F048
:101EC000340E096E000E0A6E0CEC12F0120010C0F7
:101ED00016F011C017F012C018F013C019F016C098
:101EE00001F017C002F018C003F019C004F014C0CC
:101EF00005F015C006F0000E06BEFF0E076E086E58
:101F0000D5EC10F001C016F002C017F003C018F0B5
:101F100004C019F00E4A0F2A165017101810191085
:101F2000D8A495EF0FF097EF0FF06FEF0FF00EC002
:101F3000D9FF0FC0DAFF000EDF6E0E06D8A00F0625
:101F400010C001F011C002F012C003F013C004F081
:101F500014C005F015C006F0000E06BEFF0E076E99
:101F6000086E27EC11F001501A6E10C001F011C07C
:101F700002F012C003F013C004F014C005F015C045
:101F800006F0000E06BEFF0E076E086ED5EC10F0D0
:101F900001C010F002C011F003C012F004C013F031
:101FA000090E1A64D6EF0FF0D8EF0FF0DAEF0FF04A
:101FB000070E1A26300E1A260EC0D9FF0FC0DAFF00
:101FC0001AC0DFFF0E06D8A00F0610501110121015
:101FD0001310D8A4EEEF0FF0F0EF0FF0A0EF0FF01A
:101FE0001200033404340A6E0A50D8A4FAEF0FF03A
:101FF000FCEF0FF006EF10F0000E016E000E026E07
:10200000000E036E000E046E73EF10F001C005F0B9
:1020100002C006F003C007F004C008F0200E16EF5F
:1020200010F0D8900832073206320532E82E11EF50
:1020300010F00550096E038EFF0E0116FF0E0216FA
:10204000FF0E0316000E0416960E0A5E0ABE2DEF52
:1020500010F02BEF10F043EF10F00A50800A970FAA
:10206000D8B035EF10F037EF10F039EF10F0FCEF8B
:102070000FF0D89004320332023201320A3E39EFB7
:1020800010F05BEF10F01F0E0A6449EF10F04BEFF9
:1020900010F053EF10F0FCEF0FF0D890013602363D
:1020A000033604360A060A50D8A459EF10F05BEF45
:1020B00010F04DEF10F00950D8B461EF10F063EF5D
:1020C00010F06BEF10F0041E031E021E016C000ED8
:1020D00002220322042201C001F002C002F003C068
:1020E00003F004C004F012000AC00EF00BC00FF0A1
:1020F0000EC001F00FC002F00CC003F00DC004F0E0
:102100006BEC11F001C00EF002C00FF0084A092A72
:102110000E500F10D8A48FEF10F091EF10F078EF61
:1021200010F008C0D9FF09C0DAFF000EDF6E080604
:10213000D8A009060AC001F00BC002F00CC003F0E1
:102140000DC004F0DAEC11F00150106E0AC001F07D
:102150000BC002F00CC003F00DC004F06BEC11F0EA
:1021600001C00AF002C00BF0090E1064BAEF10F0C3
:10217000BCEF10F0BEEF10F0070E1026300E102648
:1021800008C0D9FF09C0DAFF10C0DFFF0806D8A0D9
:1021900009060A500B10D8A4D0EF10F0D2EF10F0BF
:1021A0009AEF10F0084A092A1200000E096E000E7C
:1021B0000A6E000E0B6E000E0C6E05500610071016
:1021C0000810D8B4E6EF10F0E8EF10F01EEF11F0B1
:1021D000010E0D6EF2EF10F0D89005360636073678
:1021E00008360D2A08AEF7EF10F0F9EF10F0ECEF1B
:1021F00010F0D89009360A360B360C360550015CC3
:10220000065002580750035808500458D8A00BEF46
:1022100011F00DEF11F016EF11F00550015E0650B0
:10222000025A0750035A0850045A0980D8900832BD
:102230000732063205320D2EF9EF10F009C001F019
:102240000AC002F00BC003F00CC004F012000550ED
:10225000061007100810D8B430EF11F032EF11F06B
:1022600062EF11F0010E096E3CEF11F0D8900536C7
:10227000063607360836092A08AE41EF11F043EF5B
:1022800011F036EF11F00550015C0650025807506E
:10229000035808500458D8A050EF11F052EF11F035
:1022A0005AEF11F00550015E0650025A0750035ACA
:1022B0000850045AD8900832073206320532092EE7
:1022C00043EF11F001C001F002C002F003C003F0BF
:1022D00004C004F01200000E066E000E056E0350DE
:1022E0000410D8B476EF11F078EF11F0A0EF11F0F0
:1022F000010E076E80EF11F0D89003360436072ADE
:1023000004AE85EF11F087EF11F07CEF11F0D8905B
:10231000053606360350015C04500258D8A093EFEE
:1023200011F095EF11F09AEF11F00350015E045097
:10233000025A0580D89004320332072E87EF11F03D
:1023400005C001F006C002F01200000E096E000E7A
:102350000A6E000E0B6E000E0C6E01A0B2EF11F0B3
:10236000B4EF11F0BCEF11F00550092606500A2217
:1023700007500B2208500C22D89005360636073637
:102380000836D89004320332023201320150021072
:1023900003100410D8A4CFEF11F0D1EF11F0ADEF7E
:1023A00011F009C001F00AC002F00BC003F00CC02C
:1023B00004F0120003500410D8B4E1EF11F0E3EF81
:1023C00011F007EF12F0010E056EEBEF11F0D8904F
:1023D00003360436052A04AEF0EF11F0F2EF11F0E7
:1023E000E7EF11F00350015C04500258D8A0FBEF56
:1023F00011F0FDEF11F001EF12F00350015E0450F7
:10240000025AD89004320332052EF2EF11F001C0C7
:1024100001F002C002F0120022EF12F009C0F6FF34
:102420000AC0F7FFF86A070EF76403D00800F550FA
:1024300005D0F6CFD9FFF7CFDAFFDF5065EC12F009
:10244000094A0A2A09C0F6FF0AC0F7FFF86A070E10
:10245000F76403D00800F55005D0F6CFD9FFF7CFC9
:10246000DAFFDF500009D8A438EF12F03AEF12F08B
:102470000EEF12F0120020BE42EF12F040EF12F009
:1024800052EF12F01BC0D9FF1CC0DAFF2D0EDF6E19
:102490001B4A1C2A201E1F1E1E1E1D6C000E1E2203
:1024A0001F2220221BC00EF01CC00FF01DC010F018
:1024B0001EC011F01FC012F020C013F021C014F094
:1024C00022C015F067EC0FF01200086E08C007F08C
:1024D000F00E07168C500F0B07108C6E8C808C82C0
:1024E00000F08C92000E026E010E016EB1EC12F043
:1024F00008C007F0073AF00E07168C500F0B0710B4
:102500008C6E8C8200F08C92000E026E030E016EB7
:10251000B1EC12F01200086E08C007F0F00E0716BA
:102520008C500F0B07108C6E8C908C8200F08C926C
:10253000000E026E010E016EB1EC12F008C007F041
:10254000073AF00E07168C500F0B07108C6E8C821A
:1025500000F08C92000E026E030E016EB1EC12F0D0
:102560001200000E046E000E036ECAEF12F0000E91
:10257000066E000E056E054A062A065009E1A50EF4
:10258000055CD8A0C6EF12F0C8EF12F0BBEF12F056
:10259000034A042A0150035C02500458D8A0D3EF28
:1025A00012F0D5EF12F0B7EF12F01200000E1D1A64
:1025B000000E1E1A000E1F1A800E201A19C001F0FC
:1025C0001AC002F01BC003F01CC004F01DC005F0CF
:1025D0001EC006F01FC007F020C008F00FEC04F08A
:1025E00001C019F002C01AF003C01BF004C01CF0B7
:1025F000120014BE00EF13F0FEEF12F00CEF13F018
:1026000011C0D9FF12C0DAFF2D0EDF6E114A122A57
:10261000136C141ED8B0142A11C008F012C009F0AF
:1026200013C00AF014C00BF015C00CF016C00DF06A
:1026300074EC10F012000E6E020E0E6022EF13F01A
:1026400024EF13F02DEF13F00B500F0B80090F6EDA
:102650000F508BEC12F034EF13F00B500F0BC0093E
:102660000F6E0F508BEC12F00CC009F00DC00AF089
:102670000CEC12F0120001C007F002C008F049EFA4
:1026800013F007C0D9FF08C0DAFF03C0DFFF074A15
:10269000082A0506D8A00606052806E10628D8A4BB
:1026A00054EF13F056EF13F041EF13F01200036EE6
:1026B000000E026E3A0E036060EF13F062EF13F04B
:1026C0006CEF13F02F0E036468EF13F06AEF13F052
:1026D0006CEF13F0010E026E02C001F00130120027
:1026E000400EF66E270EF76E000EF86E00EE47F005
:1026F00010EE10F00900F5CFEEFFE550E150FAE1E1
:10270000596A586A576A000EF86E000184EF08F0A3
:10271000000E956E000E026E0F0E016EB1EC12F0FF
:10272000020E8BEC12F0280E8BEC12F0010E8BECEB
:1027300012F00C0E8BEC12F0060E8BEC12F0120065
:102740003738392F3435362A3132332D20303D2B6E
:08275000010E8BEC12F01200E7
:020000040020DA
:08000000FFFFFFFFFFFFFFFF00
:020000040030CA
:0E00000000091F1EFF0181FF0FC00FE00F401F
:00000001FF
