:020000040000FA
:0400000073EF13F097
:100800000043616C63756C61646F7261004D4154AB
:1008100048204552524F52002B2C2D2C2A2C2F00B1
:030820002E0000A7
:100824000450800B0D6E045004240F6E03AE1DEFB4
:1008340004F01FEF04F020EF04F00F800F50D8B441
:1008440026EF04F028EF04F03DEF04F00F28D8A4BD
:100854002EEF04F030EF04F038EF04F0000E016ED8
:10086400000E026E000E036E000E046E038E000E68
:10087400046E45EF04F0000E016E000E026E000ED1
:10088400036E000E046E0850800B0E6E0D500E1891
:10089400D8B44FEF04F051EF04F052EF04F00D8C94
:1008A400085008240E6E07AE5AEF04F05CEF04F013
:1008B4005DEF04F00E800E50D8B463EF04F065EFE2
:1008C40004F07AEF04F00E28D8A46BEF04F06DEF77
:1008D40004F075EF04F0000E056E000E066E000EB7
:1008E400076E000E086E078E000E086E82EF04F08D
:1008F400000E056E000E066E000E076E000E086EEA
:100904000F500E5CD8B089EF04F08BEF04F0B2EF17
:1009140004F00DAC90EF04F092EF04F094EF04F0C7
:10092400800E0D1A0FC010F00EC00FF010C00EF0A4
:1009340001C010F005C001F010C005F002C010F0B5
:1009440006C002F010C006F003C010F007C003F0A8
:1009540010C007F004C010F008C004F010C008F084
:10096400000E106E0F500EC009F00A6A095E000EE8
:100974000A5A0ABEC7EF04F00A5009E11A0E095CCC
:10098400D8A0C7EF04F0C9EF04F000EF05F0015060
:10099400021003100410D8A4D2EF04F0D5EF04F031
:1009A400010ED6EF04F0000E106E000E016E000E64
:1009B400026E000E036E000E046E0EC00FF009EFFF
:1009C40005F010A0E8EF04F0EAEF04F0F0EF04F013
:1009D400D89010300109106EF2EF04F0D890103264
:1009E40001A0F7EF04F0F9EF04F0FAEF04F0108E31
:1009F400043404320332023201320F2A0E500F5CE7
:100A0400D8A007EF05F009EF05F0E3EF04F00DBC03
:100A14000EEF05F010EF05F050EF05F00F50D8A4DD
:100A240016EF05F018EF05F022EF05F0000E016E49
:100A3400000E026E000E036E000E046E71EF06F0DF
:100A440005500126065002220750032208500422B2
:100A540004A02FEF05F031EF05F0DDEF05F010A055
:100A640036EF05F038EF05F03EEF05F0D890103082
:100A74000109106E40EF05F0D890103201A045EF47
:100A840005F047EF05F048EF05F0108E043404320A
:100A94000332023201320F2ADDEF05F00550015C0A
:100AA40006500258075003580450800A096E085033
:100AB400800A0958D8B061EF05F063EF05F08EEFB6
:100AC40005F00150055C096E025006580A6E035089
:100AD40007580B6E045008580C6EFF0E0924016E63
:100AE400FF0E0A20026EFF0E0B20036EFF0E0C2079
:100AF400046E800E0D1A106C1050D8A484EF05F00B
:100B040086EF05F096EF05F0010E0126000E022295
:100B14000322042296EF05F00550015E0650025AA6
:100B24000750035A0850045A0150021003100410CD
:100B3400D8A49FEF05F0A1EF05F0D6EF05F0105013
:100B4400D8A4A7EF05F0A9EF05F0D6EF05F0000E45
:100B5400016E000E026E000E036E000E046E71EF45
:100B640006F0D890013602360336043610AEBDEFD7
:100B740005F0BFEF05F0C0EF05F0018010A0C5EF50
:100B840005F0C7EF05F0CBEF05F0D8801036CDEFB8
:100B940005F0D89010360F50D8B4D3EF05F0D5EF48
:100BA40005F0D6EF05F00F0603AEDBEF05F0DDEF41
:100BB40005F0B3EF05F0000E0E6E10AEE4EF05F095
:100BC400E6EF05F0FEEF05F010C009F07F0E091600
:100BD400D8B4EFEF05F0F1EF05F0F5EF05F0010EF5
:100BE4000E6EFEEF05F001A0FAEF05F0FCEF05F044
:100BF400FEEF05F0F1EF05F00E50D8B404EF06F067
:100C040006EF06F031EF06F0010E0126000E022277
:100C14000322042204A011EF06F013EF06F031EFD3
:100C240006F001C009F002C00AF003C00BF004C0D2
:100C34000CF00C340C320B320A32093209C001F0C8
:100C44000AC002F00BC003F00CC004F00F28D8B4A3
:100C54002EEF06F030EF06F031EF06F00F2A0F28E2
:100C6400D8B437EF06F039EF06F041EF06F00F5035
:100C7400D8A43FEF06F041EF06F053EF06F0000E64
:100C8400016E000E026E000E036E000E046E0F5015
:100C9400D8A44FEF06F051EF06F053EF06F0000E24
:100CA4000D6E0FA058EF06F05AEF06F05DEF06F058
:100CB400038E5EEF06F0039ED8900F30046E0DAEE7
:100CC40066EF06F068EF06F069EF06F0048E01C0E7
:100CD40001F002C002F003C003F004C004F01200EB
:100CE4000450800B0D6E04500424136E03AE7DEF8C
:100CF40006F07FEF06F080EF06F013801350D8B4AF
:100D040086EF06F088EF06F09BEF06F01328D8A4D0
:100D14008EEF06F090EF06F098EF06F0000E016EED
:100D2400000E026E000E036E000E046E038EA3EF1F
:100D340006F0000E016E000E026E000E036E000E31
:100D4400046E0850800B0D1A08500824126E07AE6A
:100D5400AEEF06F0B0EF06F0B1EF06F012801250DD
:100D6400D8B4B7EF06F0B9EF06F0CCEF06F01228CE
:100D7400D8A4BFEF06F0C1EF06F0C9EF06F0000EED
:100D8400056E000E066E000E076E000E086E078ECE
:100D9400D4EF06F0000E056E000E066E000E076E10
:100DA400000E086E1250D8B4DAEF06F0DCEF06F04D
:100DB400E4EF06F01350D8A4E2EF06F0E4EF06F0F7
:100DC400EEEF06F0000E016E000E026E000E036ED2
:100DD400000E046E86EF08F007500102F3CF18F0FE
:100DE400F4CF19F018500E6E0F6A106A116A195078
:100DF400146E156A166A176A06500202F3CF18F0C9
:100E0400F4CF19F018500E26000E0F2210221122D2
:100E140019501426000E152216221722055003021B
:100E2400F3CF18F0F4CF19F018500E26000E0F224D
:100E34001022112219501426000E152216221722F0
:100E440010C011F00FC010F00EC00FF00E6A055064
:100E54000202F3CF18F0F4CF19F018500E261950EF
:100E64000F22000E1022000E112206500102F3CFB1
:100E740018F0F4CF19F018500E2619500F22000E56
:100E84001022000E112210C011F00FC010F00EC07D
:100E94000FF00E6A05500102F3CF18F0F4CF19F0E9
:100EA40018500E2619500F22000E1022000E112287
:100EB40007500202F3CF18F0F4CF19F0185014269B
:100EC40019501522000E1622000E17220650030296
:100ED400F3CF18F0F4CF19F0185014261950152236
:100EE400000E1622000E172207500302F3CF18F04B
:100EF400F4CF19F01850096E19500A6E0B6A0C6A77
:100F04000BC00CF00AC00BF009C00AF0096A0950C2
:100F140014260A5015220B5016220C5017220EC00C
:100F240009F00FC00AF010C00BF011C00CF0190E3C
:100F3400A1EF07F0D8900C320B320A320932E82EB6
:100F44009CEF07F0095014260A5015220B50162264
:100F54000C50172210C011F00FC010F00EC00FF08B
:100F64000E6A125013C009F00A6A0926000E0A22FA
:100F7400820E0924186EFF0E0A20196ED7EF07F0AF
:100F8400D890143615361636173611AECCEF07F056
:100F9400CEEF07F0CFEF07F01480D8900E360F365F
:100FA400103611361806D8A0190616AEDCEF07F075
:100FB400DEEF07F0C2EF07F0000E126E11AEE5EFA0
:100FC40007F0E7EF07F00BEF08F0FF0E0E14096EC1
:100FD400FF0E0F140A6EFF0E10140B6E7F0E111409
:100FE4000C6E09500A100B100C10D8B4FCEF07F06B
:100FF400FEEF07F002EF08F0010E126E0BEF08F09F
:1010040014A007EF08F009EF08F00BEF08F0FEEF6B
:1010140007F01250D8B411EF08F013EF08F037EFCF
:1010240008F0010E1426000E15221622172217A00E
:101034001EEF08F020EF08F037EF08F014C009F0B5
:1010440015C00AF016C00BF017C00CF00C340C32AB
:101054000B320A32093209C014F00AC015F00BC071
:1010640016F00CC017F0184A192A19BE42EF08F0FE
:10107400195008E11828D8A042EF08F044EF08F00E
:101084004EEF08F0000E146E000E156E800E166EF4
:101094007F0E176E7CEF08F019BE5BEF08F0195055
:1010A40006E11804D8B059EF08F05BEF08F067EFD9
:1010B40008F0000E146E000E156E000E166E000E73
:1010C400176E000E0D6E7CEF08F018C013F0FF0EC3
:1010D4001416FF0E15167F0E1616000E171613A003
:1010E40076EF08F078EF08F079EF08F0168ED890D4
:1010F4001330176E0D50171214C001F015C002F012
:1011040016C003F017C004F01200000E0001856F32
:10111400000E846F000E7E6F000E7F6F000E806FD6
:10112400000E816F000E836F720ED36EF19E8BECF6
:1011340013F0000E0B6E010E0C6E080E0D6E010EF8
:101144001EEC13F0000E0B6E180E0C6E080E0D6ED6
:10115400020E1EEC13F0070E026ED00E016EB4ECFC
:1011640012F0ABEC13F0800E8EEC12F02FEC0CF0BE
:101174000001926F000E026E1E0E016EB4EC12F0AE
:10118400200E00019219D8B4CAEF08F0CCEF08F091
:1011940024EF0AF02B0E9219D8B4D3EF08F0D5EF50
:1011A40008F017EF09F02D0E9219D8B4DCEF08F00F
:1011B400DEEF08F017EF09F02F0E9219D8B4E5EF1F
:1011C40008F0E7EF08F017EF09F02A0E9219D8B4E7
:1011D400EEEF08F0F0EF08F017EF09F03D0E92196A
:1011E400D8B4F7EF08F0F9EF08F017EF09F08351DE
:1011F400D8A4FFEF08F001EF09F00DEF09F0600E3D
:101204008425D96E000E8521DA6E92C0DFFF844BEF
:10121400852B17EF09F06A0E8425D96E000E8521FF
:10122400DA6E92C0DFFF09EF09F02B0E9219D8B4E1
:101234001EEF09F020EF09F03BEF09F02D0E921993
:10124400D8B427EF09F029EF09F03BEF09F02A0E93
:101254009219D8B430EF09F032EF09F03BEF09F0FE
:101264002F0E9219D8A439EF09F03BEF09F043EFA0
:1012740009F092C082F0000E856F000E846F010E9B
:10128400836F3D0E9219D8A44AEF09F04CEF09F090
:1012940058EF0AF0600E0D6E000E0E6E40EC0EF06C
:1012A4000DC08AF00EC08BF00FC08CF010C08DF012
:1012B4006A0E0D6E000E0E6E40EC0EF00DC08EF038
:1012C4000EC08FF00FC090F010C091F0C00E8EECE5
:1012D40012F00EEF0AF08E518A25866F8F518B2102
:1012E400876F90518C21886F91518D21896F740E75
:1012F4001B6E000E1C6E86C01DF087C01EF088C0D9
:101304001FF089C020F0000E226E0A0E216E3EEC02
:1013140012F0740E096E000E0A6E0FEC12F058EF04
:101324000AF08E518A5D866F8F518B59876F905169
:101334008C59886F91518D59896F79EF09F08AC062
:1013440001F08BC002F08CC003F08DC004F08EC09D
:1013540005F08FC006F090C007F091C008F0A8EC2B
:1013640011F001C086F002C087F003C088F004C009
:1013740089F079EF09F08E518F1190119111D8A451
:10138400C6EF09F0C8EF09F0D2EF09F0ABEC13F0A7
:101394000D0E096E080E0A6E0FEC12F058EF0AF0EB
:1013A4008AC00BF08BC00CF08CC00DF08DC00EF019
:1013B400000E66EC0DF00BC019F00CC01AF00DC055
:1013C4001BF00EC01CF08EC00BF08FC00CF090C050
:1013D4000DF091C00EF0000E66EC0DF00BC01DF088
:1013E4000CC01EF00DC01FF00EC020F062EC0AF01D
:1013F40019C07EF01AC07FF01BC080F01CC081F0C1
:101404007EC021F07FC022F080C023F081C024F090
:10141400DDEC0EF058EF0AF0000182512A0AD8B42C
:10142400A1EF09F0010AD8B46DEF09F0060AD8B4A7
:1014340093EF09F0020AD8B4BDEF09F022EF0AF0E5
:1014440058EF0AF0ABEC13F0000E026E0A0E016EB8
:10145400B4EC12F0600E016E000E026E000E046E0B
:10146400000E036E000E066E0A0E056E3EEC13F0BF
:101474006A0E016E000E026E000E046E000E036E04
:10148400000E066E0A0E056E3EEC13F0740E016E2D
:10149400000E026E000E046E000E036E000E066E49
:1014A4000A0E056E3EEC13F060EF0AF0000E026EB9
:1014B400010E016EB4EC12F0B8EF08F000EF00F08A
:1014C4001C50800B296E1C501C24306E1BAE6DEF1B
:1014D4000AF06FEF0AF070EF0AF030803050D8B4A1
:1014E40076EF0AF078EF0AF08DEF0AF03028D8A4EE
:1014F4007EEF0AF080EF0AF088EF0AF0000E196E12
:10150400000E1A6E000E1B6E000E1C6E1B8E000E5B
:101514001C6E95EF0AF0000E196E000E1A6E000E86
:101524001B6E000E1C6E2050800B291A20502024A4
:10153400316E1FAEA0EF0AF0A2EF0AF0A3EF0AF09B
:1015440031803150D8B4A9EF0AF0ABEF0AF0C0EF04
:101554000AF03128D8A4B1EF0AF0B3EF0AF0BBEFD8
:101564000AF0000E1D6E000E1E6E000E1F6E000EA1
:10157400206E1F8E000E206EC8EF0AF0000E1D6E46
:10158400000E1E6E000E1F6E000E206E1D501E10EB
:101594001F102010D8A4D1EF0AF0D3EF0AF0EBEF1C
:1015A4000AF0000E196E000E1A6E000E1B6E000E6D
:1015B4001C6E800E1B127F0E1C1229501C1219C0A7
:1015C40019F01AC01AF01BC01BF01CC01CF02EEF3F
:1015D4000CF03050D8A4F1EF0AF0F3EF0AF0FDEF6D
:1015E4000AF0000E196E000E1A6E000E1B6E000E2D
:1015F4001C6E2EEF0CF0315030C021F0226A215EB7
:10160400000E225A7F0E21242A6E000E22202B6EF9
:1016140019C025F01AC026F01BC027F01CC028F002
:10162400000E196E000E1A6E000E1B6E000E1C6E5C
:10163400000E2C6E000E2D6E000E2E6E000E2F6E00
:10164400000E316E5EEF0BF03150D8B42CEF0BF07E
:101654002EEF0BF045EF0BF0D890253626362736C3
:101664002836D89019361A361B361C362FAE3DEF65
:101674000BF03FEF0BF040EF0BF01980D8902C36B5
:101684002D362E362F361D50255C1E5026581F50E1
:10169400275820502858D8A052EF0BF054EF0BF0E5
:1016A4005DEF0BF02F8C1D50255E1E50265A1F50E7
:1016B400275A2050285A312A190E316464EF0BF04E
:1016C40066EF0BF026EF0BF025502610271028109C
:1016D400D8B46FEF0BF071EF0BF089EF0BF02C80A7
:1016E40089EF0BF0D89019361A361B361C362FAEFC
:1016F4007EEF0BF080EF0BF081EF0BF01980D890A8
:101704002C362D362E362F362A06D8A02B061BAEA5
:101714008EEF0BF090EF0BF074EF0BF0000E316EC8
:101724002FAE97EF0BF099EF0BF0BDEF0BF0FF0E20
:101734002C14216EFF0E2D14226EFF0E2E14236E18
:101744007F0E2F14246E2150221023102410D8B49D
:10175400AEEF0BF0B0EF0BF0B4EF0BF0010E316E07
:10176400BDEF0BF019A0B9EF0BF0BBEF0BF0BDEF21
:101774000BF0B0EF0BF03150D8B4C3EF0BF0C5EF62
:101784000BF0E9EF0BF0010E1926000E1A221B22B2
:101794001C221CA0D0EF0BF0D2EF0BF0E9EF0BF002
:1017A40019C021F01AC022F01BC023F01CC024F081
:1017B4002434243223322232213221C019F022C0AF
:1017C4001AF023C01BF024C01CF02A4A2B2A2BBE7B
:1017D400F4EF0BF02B5008E12A28D8A0F4EF0BF01B
:1017E400F6EF0BF001EF0CF0000E2B6E2A68000EE2
:1017F400196E000E1A6E000E1B6E000E1C6E2BBEB0
:101804000EEF0CF02B5006E12A04D8B00CEF0CF0CC
:101814000EEF0CF01CEF0CF0000E2B6E000E2A6E77
:10182400000E196E000E1A6E000E1B6E000E1C6E5A
:10183400000E296E2AC030F030A023EF0CF025EF03
:101844000CF028EF0CF01B8E29EF0CF01B9ED890A7
:1018540030301C6EDFEF0AF01200F00E936EF00EC3
:101864008A6E8150F00B596EF00E5918D8A43DEFD2
:101874000CF03FEF0CF033EF0CF08150F00B596E8D
:10188400F00E5918D8A449EF0CF04BEF0CF033EFDD
:101894000CF0F00E8A6E8150F00B596EF00E591850
:1018A400D8B457EF0CF059EF0CF04DEF0CF0815019
:1018B400F00B596EF00E5918D8B463EF0CF065EFC5
:1018C4000CF04DEF0CF0000E026E140E016EB4EC31
:1018D40012F08150F00B596EFE0E8A6E8150F00B9F
:1018E400596E59C057F0F00E5918D8B47CEF0CF06B
:1018F4007EEF0CF090EF0CF0000E586E85EF0CF0BC
:101904008150F00B576EF00E5718D8A48CEF0CF0E2
:101914008EEF0CF082EF0CF0F4EF0CF0FD0E8A6EFB
:101924008150F00B596E59C057F0F00E5918D8B4C5
:101934009EEF0CF0A0EF0CF0B2EF0CF0010E586E1D
:10194400A7EF0CF08150F00B576EF00E5718D8A487
:10195400AEEF0CF0B0EF0CF0A4EF0CF0F4EF0CF0E1
:10196400FB0E8A6E8150F00B596E59C057F0F00E81
:101974005918D8B4C0EF0CF0C2EF0CF0D4EF0CF04F
:10198400020E586EC9EF0CF08150F00B576EF00E3A
:101994005718D8A4D0EF0CF0D2EF0CF0C6EF0CF02F
:1019A400F4EF0CF0F70E8A6E8150F00B596E59C0AB
:1019B40057F0F00E5918D8B4E2EF0CF0E4EF0CF045
:1019C4006EEF0CF0030E586EEBEF0CF08150F00B41
:1019D400576EF00E5718D8A4F2EF0CF0F4EF0CF099
:1019E400E8EF0CF0E00E5918D8A4FBEF0CF0FDEF73
:1019F4000CF013EF0DF05850040D470EF324D96E7C
:101A0400000EF420DA6EDF5068EC12F05850040D2A
:101A1400470EF324D96E000EF420DA6EDF5065EF22
:101A24000DF0D00E5918D8A41AEF0DF01CEF0DF0DC
:101A340032EF0DF05850040D480EF324D96E000E09
:101A4400F420DA6EDF5068EC12F05850040D480EA2
:101A5400F324D96E000EF420DA6EDF5065EF0DF03A
:101A6400B00E5918D8A439EF0DF03BEF0DF051EF3B
:101A74000DF05850040D490EF324D96E000EF420D5
:101A8400DA6EDF5068EC12F05850040D490EF3245E
:101A9400D96E000EF420DA6EDF5065EF0DF0585069
:101AA400040D4A0EF324D96E000EF420DA6EDF50D2
:101AB40068EC12F05850040D4A0EF324D96E000E4F
:101AC400F420DA6EDF501200136E1350D8B46DEFA9
:101AD4000DF06FEF0DF091EF0DF00EBE76EF0DF0FF
:101AE40074EF0DF091EF0DF00BC00FF00CC010F07F
:101AF4000DC011F00EC012F00F1E101E111E121E8A
:101B04000F2A000E1022112212220FC015F010C04D
:101B140016F011C017F012C018F099EF0DF00BC0B9
:101B240015F00CC016F00DC017F00EC018F00B50D5
:101B34000C100D100E10D8A4A2EF0DF0A4EF0DF0B0
:101B4400AEEF0DF0000E0B6E000E0C6E000E0D6E5F
:101B5400000E0E6E3FEF0EF0960E146EB8EF0DF001
:101B6400142AD8901832173216321532000E151472
:101B74000F6E000E1614106E000E1714116EFE0E6A
:101B84001814126E0F50101011101210D8A4CDEFAB
:101B94000DF0CFEF0DF0B2EF0DF0DDEF0DF0142AE4
:101BA400010E1526000E162217221822D89018327C
:101BB400173216321532000E15140F6E000E16145D
:101BC400106E000E1714116EFF0E1814126E0F50C3
:101BD400101011101210D8A4F2EF0DF0F4EF0DF064
:101BE400D1EF0DF0FCEF0DF01406D8901536163633
:101BF4001736183617BE01EF0EF003EF0EF00BEF99
:101C04000EF0020E146009EF0EF00BEF0EF0F6EF7B
:101C14000DF014B010EF0EF012EF0EF013EF0EF003
:101C2400179ED890143214C00FF0106A116A126A09
:101C34000FC012F0116A106A0F6A0F50151210507B
:101C4400161211501712125018121350D8B42DEF47
:101C54000EF02FEF0EF037EF0EF00EBE36EF0EF053
:101C640034EF0EF037EF0EF0188E15C00BF016C0DF
:101C74000CF017C00DF018C00EF012000DC0D9FF03
:101C84000EC0DAFFDF501A6E0D4A0E2A200E1A1803
:101C9400D8B44FEF0EF051EF0EF040EF0EF0090EF6
:101CA4001A18D8B458EF0EF05AEF0EF040EF0EF0B9
:101CB400000E166E000E176E000E186E000E196ED2
:101CC400000E156E2D0E1A18D8A46BEF0EF06DEFE2
:101CD4000EF078EF0EF0152A0DC0D9FF0EC0DAFF12
:101CE400DF501A6E0D4A0E2AA7EF0EF02B0E1A18AB
:101CF400D8A47FEF0EF081EF0EF0A7EF0EF06EEF99
:101D04000EF016C001F017C002F018C003F019C09D
:101D140004F00A0E056E000E066E000E076E000E2D
:101D2400086EA8EC11F01AC011F0D00E1126115053
:101D34000124166E000E0220176E000E0320186E8A
:101D4400000E0420196E6EEF0EF01A505AEC13F0C8
:101D5400D8B0AFEF0EF0B1EF0EF083EF0EF01550E8
:101D6400D8B4B7EF0EF0B9EF0EF0D4EF0EF016C002
:101D740011F017C012F018C013F019C014F0111E9E
:101D8400121E131E141E112A000E122213221422D4
:101D940011C00DF012C00EF013C00FF014C010F0FB
:101DA400DCEF0EF016C00DF017C00EF018C00FF0E7
:101DB40019C010F0120021C019F022C01AF023C07B
:101DC4001BF024C01CF021C001F022C002F023C08B
:101DD40003F024C004F0F4EC0FF001C00BF002C0D7
:101DE4000CF0000E0CBEFF0E0D6E0E6E010E66ECB6
:101DF4000DF00BC01DF00CC01EF00DC01FF00EC086
:101E040020F0D9EC12F019C043F01AC044F01BC002
:101E140045F01CC046F043C001F044C002F045C088
:101E240003F046C004F0000E056E000E066EC80EE8
:101E3400076E420E086E72EC06F001C043F002C059
:101E440044F003C045F004C046F0250E116E000EA8
:101E5400126E21C001F022C002F023C003F024C09E
:101E640004F0F4EC0FF001C013F002C014F0000E03
:101E7400166E0A0E156EFCEC12F0250E096E000E9D
:101E84000A6E0FEC12F0200E096E080E0A6E0FECAB
:101E940012F0340E116E000E126E43C001F044C0F5
:101EA40002F045C003F046C004F0F4EC0FF001C0AA
:101EB40013F002C014F0000E166E0A0E156EFCEC40
:101EC40012F0340E096E000E0A6E0FEC12F01200BE
:101ED40010C016F011C017F012C018F013C019F09A
:101EE40016C001F017C002F018C003F019C004F0C6
:101EF40014C005F015C006F0000E06BEFF0E076EF6
:101F0400086ED8EC10F001C016F002C017F003C040
:101F140018F004C019F00E4A0F2A165017101810A2
:101F24001910D8A498EF0FF09AEF0FF072EF0FF09A
:101F34000EC0D9FF0FC0DAFF000EDF6E0E06D8A068
:101F44000F0610C001F011C002F012C003F013C05C
:101F540004F014C005F015C006F0000E06BEFF0E16
:101F6400076E086E2AEC11F001501A6E10C001F0D1
:101F740011C002F012C003F013C004F014C005F045
:101F840015C006F0000E06BEFF0E076E086ED8ECF4
:101F940010F001C010F002C011F003C012F004C030
:101FA40013F0090E1A64D9EF0FF0DBEF0FF0DDEF39
:101FB4000FF0070E1A26300E1A260EC0D9FF0FC0D6
:101FC400DAFF1AC0DFFF0E06D8A00F06105011105A
:101FD40012101310D8A4F1EF0FF0F3EF0FF0A3EFEA
:101FE4000FF01200033404340A6E0A50D8A4FDEF33
:101FF4000FF0FFEF0FF009EF10F0000E016E000E6E
:10200400026E000E036E000E046E76EF10F001C037
:1020140005F002C006F003C007F004C008F0200E6B
:1020240019EF10F0D8900832073206320532E82E44
:1020340014EF10F00550096E038EFF0E0116FF0E0B
:102044000216FF0E0316000E0416960E0A5E0ABE52
:1020540030EF10F02EEF10F046EF10F00A50800A27
:10206400970FD8B038EF10F03AEF10F03CEF10F0C3
:10207400FFEF0FF0D89004320332023201320A3EED
:102084003CEF10F05EEF10F01F0E0A644CEF10F0FE
:102094004EEF10F056EF10F0FFEF0FF0D89001362E
:1020A4000236033604360A060A50D8A45CEF10F050
:1020B4005EEF10F050EF10F00950D8B464EF10F058
:1020C40066EF10F06EEF10F0041E031E021E016C8A
:1020D400000E02220322042201C001F002C002F019
:1020E40003C003F004C004F012000AC00EF00BC0D9
:1020F4000FF00EC001F00FC002F00CC003F00DC0D1
:1021040004F06EEC11F001C00EF002C00FF0084AAA
:10211400092A0E500F10D8A492EF10F094EF10F08B
:102124007BEF10F008C0D9FF09C0DAFF000EDF6EA4
:102134000806D8A009060AC001F00BC002F00CC0C2
:1021440003F00DC004F0DDEC11F00150106E0AC074
:1021540001F00BC002F00CC003F00DC004F06EECF3
:1021640011F001C00AF002C00BF0090E1064BDEFBB
:1021740010F0BFEF10F0C1EF10F0070E1026300E74
:10218400102608C0D9FF09C0DAFF10C0DFFF080617
:10219400D8A009060A500B10D8A4D3EF10F0D5EF3D
:1021A40010F09DEF10F0084A092A1200000E096E83
:1021B400000E0A6E000E0B6E000E0C6E055006101B
:1021C40007100810D8B4E9EF10F0EBEF10F021EF8E
:1021D40011F0010E0D6EF5EF10F0D89005360636AD
:1021E400073608360D2A08AEFAEF10F0FCEF10F0AF
:1021F400EFEF10F0D89009360A360B360C3605503E
:10220400015C065002580750035808500458D8A0DF
:102214000EEF11F010EF11F019EF11F00550015EFF
:102224000650025A0750035A0850045A0980D8909D
:1022340008320732063205320D2EFCEF10F009C0C9
:1022440001F00AC002F00BC003F00CC004F012004D
:102254000550061007100810D8B433EF11F035EF0D
:1022640011F065EF11F0010E096E3FEF11F0D890F7
:102274000536063607360836092A08AE44EF11F04B
:1022840046EF11F039EF11F00550015C0650025889
:102294000750035808500458D8A053EF11F055EFD5
:1022A40011F05DEF11F00550015E0650025A07501F
:1022B400035A0850045AD8900832073206320532BD
:1022C400092E46EF11F001C001F002C002F003C074
:1022D40003F004C004F01200000E066E000E056E3A
:1022E40003500410D8B479EF11F07BEF11F0A3EF91
:1022F40011F0010E076E83EF11F0D8900336043607
:10230400072A04AE88EF11F08AEF11F07FEF11F085
:10231400D890053606360350015C04500258D8A004
:1023240096EF11F098EF11F09DEF11F00350015E5C
:102334000450025A0580D89004320332072E8AEFE3
:1023440011F005C001F006C002F01200000E096E83
:10235400000E0A6E000E0B6E000E0C6E01A0B5EF9F
:1023640011F0B7EF11F0BFEF11F005500926065038
:102374000A2207500B2208500C22D8900536063644
:1023840007360836D8900432033202320132015043
:10239400021003100410D8A4D2EF11F0D4EF11F0FE
:1023A400B0EF11F009C001F00AC002F00BC003F055
:1023B4000CC004F0120003500410D8B4E4EF11F080
:1023C400E6EF11F00AEF12F0010E056EEEEF11F0D8
:1023D400D89003360436052A04AEF3EF11F0F5EF76
:1023E40011F0EAEF11F00350015C04500258D8A038
:1023F400FEEF11F000EF12F004EF12F00350015E53
:102404000450025AD89004320332052EF5EF11F02D
:1024140001C001F002C002F0120025EF12F009C061
:10242400F6FF0AC0F7FFF86A070EF76403D0080046
:10243400F55005D0F6CFD9FFF7CFDAFFDF5068ECBF
:1024440012F0094A0A2A09C0F6FF0AC0F7FFF86A1F
:10245400070EF76403D00800F55005D0F6CFD9FF76
:10246400F7CFDAFFDF500009D8A43BEF12F03DEFBD
:1024740012F011EF12F0120020BE45EF12F043EFFC
:1024840012F055EF12F01BC0D9FF1CC0DAFF2D0E5D
:10249400DF6E1B4A1C2A201E1F1E1E1E1D6C000EF2
:1024A4001E221F2220221BC00EF01CC00FF01DC0D4
:1024B40010F01EC011F01FC012F020C013F021C094
:1024C40014F022C015F06AEC0FF01200086E08C078
:1024D40007F0F00E07168C500F0B07108C6E8C80D3
:1024E4008C8200F08C92000E026E010E016EB4EC30
:1024F40012F008C007F0073AF00E07168C500F0BC5
:1025040007108C6E8C8200F08C92000E026E030E0B
:10251400016EB4EC12F01200086E08C007F0F00E61
:1025240007168C500F0B07108C6E8C908C8200F069
:102534008C92000E026E010E016EB4EC12F008C013
:1025440007F0073AF00E07168C500F0B07108C6E2D
:102554008C8200F08C92000E026E030E016EB4ECBD
:1025640012F01200000E046E000E036ECDEF12F096
:10257400000E066E000E056E054A062A065009E195
:10258400A50E055CD8A0C9EF12F0CBEF12F0BEEF98
:1025940012F0034A042A0150035C02500458D8A0E4
:1025A400D6EF12F0D8EF12F0BAEF12F01200000ECC
:1025B4001D1A000E1E1A000E1F1A800E201A19C0B2
:1025C40001F01AC002F01BC003F01CC004F01DC0CF
:1025D40005F01EC006F01FC007F020C008F012EC82
:1025E40004F001C019F002C01AF003C01BF004C0CB
:1025F4001CF0120014BE03EF13F001EF13F00FEF01
:1026040013F011C0D9FF12C0DAFF2D0EDF6E114A8C
:10261400122A136C141ED8B0142A11C008F012C068
:1026240009F013C00AF014C00BF015C00CF016C06A
:102634000DF077EC10F012000E6E020E0E6025EF16
:1026440013F027EF13F030EF13F00B500F0B80094A
:102654000F6E0F508EEC12F037EF13F00B500F0B80
:10266400C0090F6E0F508EEC12F00CC009F00DC0B3
:102674000AF00FEC12F0120001C007F002C008F0DB
:102684004CEF13F007C0D9FF08C0DAFF03C0DFFF27
:10269400074A082A0506D8A00606052806E10628E2
:1026A400D8A457EF13F059EF13F044EF13F01200CE
:1026B400036E000E026E3A0E036063EF13F065EFD3
:1026C40013F06FEF13F02F0E03646BEF13F06DEF45
:1026D40013F06FEF13F0010E026E02C001F001302F
:1026E4001200460EF66E270EF76E000EF86E00EE20
:1026F40047F010EE10F00900F5CFEEFFE550E15081
:10270400FAE1596A586A576A000EF86E000187EFB9
:1027140008F0000E956E000E026E0F0E016EB4EC02
:1027240012F0020E8EEC12F0280E8EEC12F0010E56
:102734008EEC12F00C0E8EEC12F0060E8EEC12F0F3
:1027440012003738392F3435362A3132332D2030C0
:0A2754003D2B010E8EEC12F0120076
:020000040020DA
:08000000FFFFFFFFFFFFFFFF00
:020000040030CA
:0E00000000091F1EFF0181FF0FC00FE00F401F
:00000001FF
