:020000040000FA
:040000005DEF14F0AC
:100800000043616C63756C61646F7261002B2C2D09
:100810002C2A2C2F004552524F52002E000004501B
:10082000800B0D6E045004240F6E03AE1AEF04F01B
:100830001CEF04F01DEF04F00F800F50D8B423EF2D
:1008400004F025EF04F03AEF04F00F28D8A42BEFC2
:1008500004F02DEF04F035EF04F0000E016E000EF1
:10086000026E000E036E000E046E038E000E046E08
:1008700042EF04F0000E016E000E026E000E036ED9
:10088000000E046E0850800B0E6E0D500E18D8B47A
:100890004CEF04F04EEF04F04FEF04F00D8C0850D5
:1008A00008240E6E07AE57EF04F059EF04F05AEF2C
:1008B00004F00E800E50D8B460EF04F062EF04F044
:1008C00077EF04F00E28D8A468EF04F06AEF04F084
:1008D00072EF04F0000E056E000E066E000E076E3D
:1008E000000E086E078E000E086E7FEF04F0000EFB
:1008F000056E000E066E000E076E000E086E0F509D
:100900000E5CD8B086EF04F088EF04F0AFEF04F08F
:100910000DAC8DEF04F08FEF04F091EF04F0800E3A
:100920000D1A0FC010F00EC00FF010C00EF001C075
:1009300010F005C001F010C005F002C010F006C0B4
:1009400002F010C006F003C010F007C003F010C0A2
:1009500007F004C010F008C004F010C008F0000E4A
:10096000106E0F500EC009F00A6A095E000E0A5A96
:100970000ABEC4EF04F00A5009E11A0E095CD8A0BF
:10098000C4EF04F0C6EF04F0FDEF04F001500210D4
:1009900003100410D8A4CFEF04F0D2EF04F0010E3E
:1009A000D3EF04F0000E106E000E016E000E026E0A
:1009B000000E036E000E046E0EC00FF006EF05F081
:1009C00010A0E5EF04F0E7EF04F0EDEF04F0D890AD
:1009D00010300109106EEFEF04F0D890103201A032
:1009E000F4EF04F0F6EF04F0F7EF04F0108E0434A7
:1009F00004320332023201320F2A0E500F5CD8A0AB
:100A000004EF05F006EF05F0E0EF04F00DBC0BEF8E
:100A100005F00DEF05F04DEF05F00F50D8A413EFE2
:100A200005F015EF05F01FEF05F0000E016E000E4A
:100A3000026E000E036E000E046E6EEF06F005509F
:100A4000012606500222075003220850042204A067
:100A50002CEF05F02EEF05F0DAEF05F010A033EFE4
:100A600005F035EF05F03BEF05F0D89010300109A7
:100A7000106E3DEF05F0D890103201A042EF05F066
:100A800044EF05F045EF05F0108E043404320332D4
:100A9000023201320F2ADAEF05F00550015C0650F0
:100AA0000258075003580450800A096E0850800A03
:100AB0000958D8B05EEF05F060EF05F08BEF05F058
:100AC0000150055C096E025006580A6E0350075823
:100AD0000B6E045008580C6EFF0E0924016EFF0EB9
:100AE0000A20026EFF0E0B20036EFF0E0C20046E18
:100AF000800E0D1A106C1050D8A481EF05F083EF12
:100B000005F093EF05F0010E0126000E02220322EC
:100B1000042293EF05F00550015E0650025A07507B
:100B2000035A0850045A0150021003100410D8A4AC
:100B30009CEF05F09EEF05F0D3EF05F01050D8A420
:100B4000A4EF05F0A6EF05F0D3EF05F0000E016E5F
:100B5000000E026E000E036E000E046E6EEF06F0C5
:100B6000D890013602360336043610AEBAEF05F0DF
:100B7000BCEF05F0BDEF05F0018010A0C2EF05F05D
:100B8000C4EF05F0C8EF05F0D8801036CAEF05F0C5
:100B9000D89010360F50D8B4D0EF05F0D2EF05F052
:100BA000D3EF05F00F0603AED8EF05F0DAEF05F04E
:100BB000B0EF05F0000E0E6E10AEE1EF05F0E3EFC2
:100BC00005F0FBEF05F010C009F07F0E0916D8B450
:100BD000ECEF05F0EEEF05F0F2EF05F0010E0E6E12
:100BE000FBEF05F001A0F7EF05F0F9EF05F0FBEFE3
:100BF00005F0EEEF05F00E50D8B401EF06F003EF6C
:100C000006F02EEF06F0010E0126000E022203224E
:100C1000042204A00EEF06F010EF06F02EEF06F00F
:100C200001C009F002C00AF003C00BF004C00CF0D0
:100C30000C340C320B320A32093209C001F00AC0FE
:100C400002F00BC003F00CC004F00F28D8B42BEF57
:100C500006F02DEF06F02EEF06F00F2A0F28D8B47D
:100C600034EF06F036EF06F03EEF06F00F50D8A452
:100C70003CEF06F03EEF06F050EF06F0000E016E7E
:100C8000000E026E000E036E000E046E0F50D8A40C
:100C90004CEF06F04EEF06F050EF06F0000E0D6E32
:100CA0000FA055EF06F057EF06F05AEF06F0038E4F
:100CB0005BEF06F0039ED8900F30046E0DAE63EF2D
:100CC00006F065EF06F066EF06F0048E01C001F055
:100CD00002C002F003C003F004C004F0120004508C
:100CE000800B0D6E04500424136E03AE7AEF06F0F1
:100CF0007CEF06F07DEF06F013801350D8B483EF3D
:100D000006F085EF06F098EF06F01328D8A48BEFD5
:100D100006F08DEF06F095EF06F0000E016E000E66
:100D2000026E000E036E000E046E038EA0EF06F03E
:100D3000000E016E000E026E000E036E000E046EB9
:100D40000850800B0D1A08500824126E07AEABEF46
:100D500006F0ADEF06F0AEEF06F012801250D8B4F8
:100D6000B4EF06F0B6EF06F0C9EF06F01228D8A4EB
:100D7000BCEF06F0BEEF06F0C6EF06F0000E056E03
:100D8000000E066E000E076E000E086E078ED1EF85
:100D900006F0000E056E000E066E000E076E000EC9
:100DA000086E1250D8B4D7EF06F0D9EF06F0E1EF95
:100DB00006F01350D8A4DFEF06F0E1EF06F0EBEFFA
:100DC00006F0000E016E000E026E000E036E000EA5
:100DD000046E83EF08F007500102F3CF18F0F4CF50
:100DE00019F018500E6E0F6A106A116A1950146EBD
:100DF000156A166A176A06500202F3CF18F0F4CF8C
:100E000019F018500E26000E0F2210221122195030
:100E10001426000E15221622172205500302F3CFC6
:100E200018F0F4CF19F018500E26000E0F221022E1
:100E3000112219501426000E15221622172210C056
:100E400011F00FC010F00EC00FF00E6A0550020234
:100E5000F3CF18F0F4CF19F018500E2619500F22C6
:100E6000000E1022000E112206500102F3CF18F0DE
:100E7000F4CF19F018500E2619500F22000E102230
:100E8000000E112210C011F00FC010F00EC00FF0B4
:100E90000E6A05500102F3CF18F0F4CF19F0185084
:100EA0000E2619500F22000E1022000E112207509C
:100EB0000202F3CF18F0F4CF19F01850142619508D
:100EC0001522000E1622000E172206500302F3CF41
:100ED00018F0F4CF19F01850142619501522000EEE
:100EE0001622000E172207500302F3CF18F0F4CF9A
:100EF00019F01850096E19500A6E0B6A0C6A0BC073
:100F00000CF00AC00BF009C00AF0096A0950142657
:100F10000A5015220B5016220C5017220EC009F051
:100F20000FC00AF010C00BF011C00CF0190E9EEFAC
:100F300007F0D8900C320B320A320932E82E99EFC2
:100F400007F0095014260A5015220B5016220C5097
:100F5000172210C011F00FC010F00EC00FF00E6A73
:100F6000125013C009F00A6A0926000E0A22820EE6
:100F70000924186EFF0E0A20196ED4EF07F0D890DE
:100F8000143615361636173611AEC9EF07F0CBEF0B
:100F900007F0CCEF07F01480D8900E360F361036DD
:100FA00011361806D8A0190616AED9EF07F0DBEFF8
:100FB00007F0BFEF07F0000E126E11AEE2EF07F080
:100FC000E4EF07F008EF08F0FF0E0E14096EFF0EB5
:100FD0000F140A6EFF0E10140B6E7F0E11140C6EA0
:100FE00009500A100B100C10D8B4F9EF07F0FBEF02
:100FF00007F0FFEF07F0010E126E08EF08F014A0E3
:1010000004EF08F006EF08F008EF08F0FBEF07F038
:101010001250D8B40EEF08F010EF08F034EF08F0DB
:10102000010E1426000E15221622172217A01BEF00
:1010300008F01DEF08F034EF08F014C009F015C0F7
:101040000AF016C00BF017C00CF00C340C320B3247
:101050000A32093209C014F00AC015F00BC016F0AC
:101060000CC017F0184A192A19BE3FEF08F01950A2
:1010700008E11828D8A03FEF08F041EF08F04BEF47
:1010800008F0000E146E000E156E800E166E7F0EA8
:10109000176E79EF08F019BE58EF08F0195006E105
:1010A0001804D8B056EF08F058EF08F064EF08F0D5
:1010B000000E146E000E156E000E166E000E176EEA
:1010C000000E0D6E79EF08F018C013F0FF0E141625
:1010D000FF0E15167F0E1616000E171613A073EFCF
:1010E00008F075EF08F076EF08F0168ED890133000
:1010F000176E0D50171214C001F015C002F016C083
:1011000003F017C004F01200000E0001856F000EFE
:10111000846F000E7E6F000E7F6F000E806F000EDA
:10112000816F000E836F720ED36EF19E8FEC14F000
:10113000000E0B6E010E0C6E080E0D6E010E21ECF2
:1011400014F0000E0B6E0D0E0C6E080E0D6E020EDE
:1011500021EC14F0030E026EE80E016EB7EC13F0F2
:10116000AFEC14F0800E91EC13F02CEC0CF00001BD
:10117000926F000E026E1E0E016EB7EC13F0200E81
:1011800000019219D8B4C7EF08F0C9EF08F021EFB9
:101190000AF02B0E9219D8B4D0EF08F0D2EF08F075
:1011A00014EF09F02D0E9219D8B4D9EF08F0DBEF47
:1011B00008F014EF09F02F0E9219D8B4E2EF08F0FE
:1011C000E4EF08F014EF09F02A0E9219D8B4EBEF0F
:1011D00008F0EDEF08F014EF09F03D0E9219D8B4C5
:1011E000F4EF08F0F6EF08F014EF09F08351D8A4FB
:1011F000FCEF08F0FEEF08F00AEF09F0600E84251E
:10120000D96E000E8521DA6E92C0DFFF844B852BEC
:1012100014EF09F06A0E8425D96E000E8521DA6E6E
:1012200092C0DFFF06EF09F02B0E9219D8B41BEF26
:1012300009F01DEF09F038EF09F02D0E9219D8B41E
:1012400024EF09F026EF09F038EF09F02A0E921981
:10125000D8B42DEF09F02FEF09F038EF09F02F0E79
:101260009219D8A436EF09F038EF09F040EF09F0F1
:1012700092C082F0000E856F000E846F010E836FA6
:101280003D0E9219D8A447EF09F049EF09F055EF48
:101290000AF0600E0D6E000E0E6ED0EC0FF00DC059
:1012A0008AF00EC08BF00FC08CF010C08DF06A0E6B
:1012B0000D6E000E0E6ED0EC0FF00DC08EF00EC055
:1012C0008FF00FC090F010C091F0C00E91EC13F0B1
:1012D0000BEF0AF08E518A25866F8F518B21876F15
:1012E00090518C21886F91518D21896F740E1B6EE6
:1012F000000E1C6E86C01DF087C01EF088C01FF057
:1013000089C020F0000E226E0A0E216E41EC13F00F
:10131000740E096E000E0A6E12EC13F055EF0AF00F
:101320008E518A5D866F8F518B59876F90518C5982
:10133000886F91518D59896F76EF09F08AC001F05D
:101340008BC002F08CC003F08DC004F08EC005F09D
:101350008FC006F090C007F091C008F0ABEC12F01F
:1013600001C086F002C087F003C088F004C089F095
:1013700076EF09F08E518F1190119111D8A4C3EF1F
:1013800009F0C5EF09F0CFEF09F0AFEC14F0150E3E
:10139000096E080E0A6E12EC13F055EF0AF08AC0BF
:1013A0000BF08BC00CF08CC00DF08DC00EF0000E59
:1013B000F6EC0EF00BC019F00CC01AF00DC01BF0CB
:1013C0000EC01CF08EC00BF08FC00CF090C00DF062
:1013D00091C00EF0000EF6EC0EF00BC01DF00CC02C
:1013E0001EF00DC01FF00EC020F05FEC0AF019C017
:1013F0007EF01AC07FF01BC080F01CC081F07EC060
:1014000021F07FC022F080C023F081C024F099EC4D
:101410000DF055EF0AF0000182512A0AD8B49EEF70
:1014200009F0010AD8B46AEF09F0060AD8B490EFBF
:1014300009F0020AD8B4BAEF09F01FEF0AF055EF2D
:101440000AF0AFEC14F0000E026E0A0E016EB7EC5B
:1014500013F0600E016E000E026E000E046E000EA0
:10146000036E000E066E0A0E056E41EC14F06A0E55
:10147000016E000E026E000E046E000E036E000E72
:10148000066E0A0E056E41EC14F0740E016E000E2D
:10149000026E000E046E000E036E000E066E0A0E43
:1014A000056E41EC14F05DEF0AF0000E026E010EC5
:1014B000016EB7EC13F0B5EF08F000EF00F01C5030
:1014C000800B296E1C501C24306E1BAE6AEF0AF094
:1014D0006CEF0AF06DEF0AF030803050D8B473EF43
:1014E0000AF075EF0AF08AEF0AF03028D8A47BEFF3
:1014F0000AF07DEF0AF085EF0AF0000E196E000E7B
:101500001A6E000E1B6E000E1C6E1B8E000E1C6EE3
:1015100092EF0AF0000E196E000E1A6E000E1B6E8E
:10152000000E1C6E2050800B291A20502024316E92
:101530001FAE9DEF0AF09FEF0AF0A0EF0AF0318096
:101540003150D8B4A6EF0AF0A8EF0AF0BDEF0AF0C8
:101550003128D8A4AEEF0AF0B0EF0AF0B8EF0AF0E5
:10156000000E1D6E000E1E6E000E1F6E000E206E11
:101570001F8E000E206EC5EF0AF0000E1D6E000ECD
:101580001E6E000E1F6E000E206E1D501E101F10CE
:101590002010D8A4CEEF0AF0D0EF0AF0E8EF0AF05E
:1015A000000E196E000E1A6E000E1B6E000E1C6EE1
:1015B000800E1B127F0E1C1229501C1219C019F02C
:1015C0001AC01AF01BC01BF01CC01CF02BEF0CF053
:1015D0003050D8A4EEEF0AF0F0EF0AF0FAEF0AF07C
:1015E000000E196E000E1A6E000E1B6E000E1C6EA1
:1015F0002BEF0CF0315030C021F0226A215E000E3A
:10160000225A7F0E21242A6E000E22202B6E19C032
:1016100025F01AC026F01BC027F01CC028F0000ED1
:10162000196E000E1A6E000E1B6E000E1C6E000E60
:101630002C6E000E2D6E000E2E6E000E2F6E000E04
:10164000316E5BEF0BF03150D8B429EF0BF02BEF7C
:101650000BF042EF0BF0D890253626362736283689
:10166000D89019361A361B361C362FAE3AEF0BF0CF
:101670003CEF0BF03DEF0BF01980D8902C362D3657
:101680002E362F361D50255C1E5026581F502758C9
:1016900020502858D8A04FEF0BF051EF0BF05AEF25
:1016A0000BF02F8C1D50255E1E50265A1F50275AB6
:1016B0002050285A312A190E316461EF0BF063EF84
:1016C0000BF023EF0BF02550261027102810D8B46C
:1016D0006CEF0BF06EEF0BF086EF0BF02C8086EFCB
:1016E0000BF0D89019361A361B361C362FAE7BEF0E
:1016F0000BF07DEF0BF07EEF0BF01980D8902C36BD
:101700002D362E362F362A06D8A02B061BAE8BEF91
:101710000BF08DEF0BF071EF0BF0000E316E2FAE72
:1017200094EF0BF096EF0BF0BAEF0BF0FF0E2C14CA
:10173000216EFF0E2D14226EFF0E2E14236E7F0ECF
:101740002F14246E2150221023102410D8B4ABEF94
:101750000BF0ADEF0BF0B1EF0BF0010E316EBAEF05
:101760000BF019A0B6EF0BF0B8EF0BF0BAEF0BF0DF
:10177000ADEF0BF03150D8B4C0EF0BF0C2EF0BF06F
:10178000E6EF0BF0010E1926000E1A221B221C2276
:101790001CA0CDEF0BF0CFEF0BF0E6EF0BF019C074
:1017A00021F01AC022F01BC023F01CC024F0243406
:1017B000243223322232213221C019F022C01AF001
:1017C00023C01BF024C01CF02A4A2B2A2BBEF1EFA9
:1017D0000BF02B5008E12A28D8A0F1EF0BF0F3EF23
:1017E0000BF0FEEF0BF0000E2B6E2A68000E196E48
:1017F000000E1A6E000E1B6E000E1C6E2BBE0BEF41
:101800000CF02B5006E12A04D8B009EF0CF00BEFD6
:101810000CF019EF0CF0000E2B6E000E2A6E000E6D
:10182000196E000E1A6E000E1B6E000E1C6E000E5E
:10183000296E2AC030F030A020EF0CF022EF0CF01F
:1018400025EF0CF01B8E26EF0CF01B9ED89030304D
:101850001C6EDCEF0AF01200F00E936EF00E8A6E32
:101860008150F00B5A6EF00E5A18D8A43AEF0CF0D3
:101870003CEF0CF030EF0CF08150F00B5A6EF00E94
:101880005A18D8A446EF0CF048EF0CF030EF0CF0EB
:10189000F00E8A6E8150F00B5A6EF00E5A18D8B4C2
:1018A00054EF0CF056EF0CF04AEF0CF08150F00BB7
:1018B0005A6EF00E5A18D8B460EF0CF062EF0CF0CC
:1018C0004AEF0CF0000E026E140E016EB7EC13F02E
:1018D0008150F00B5A6EFE0E8A6E8150F00B5A6EDC
:1018E0005AC058F0F00E5A18D8B479EF0CF07BEFCC
:1018F0000CF08DEF0CF0000E596E82EF0CF0815061
:10190000F00B586EF00E5818D8A489EF0CF08BEF3E
:101910000CF07FEF0CF0F1EF0CF0FD0E8A6E8150B1
:10192000F00B5A6E5AC058F0F00E5A18D8B49BEF0C
:101930000CF09DEF0CF0AFEF0CF0010E596EA4EF20
:101940000CF08150F00B586EF00E5818D8A4ABEF85
:101950000CF0ADEF0CF0A1EF0CF0F1EF0CF0FB0E82
:101960008A6E8150F00B5A6E5AC058F0F00E5A1819
:10197000D8B4BDEF0CF0BFEF0CF0D1EF0CF0020EBD
:10198000596EC6EF0CF08150F00B586EF00E5818DF
:10199000D8A4CDEF0CF0CFEF0CF0C3EF0CF0F1EFCB
:1019A0000CF0F70E8A6E8150F00B5A6E5AC058F048
:1019B000F00E5A18D8B4DFEF0CF0E1EF0CF06BEF3B
:1019C0000CF0030E596EE8EF0CF08150F00B586EDE
:1019D000F00E5818D8A4EFEF0CF0F1EF0CF0E5EF93
:1019E0000CF0E00E5A18D8A4F8EF0CF0FAEF0CF057
:1019F00023EF0DF05750D8A400EF0DF002EF0DF0DB
:101A00000DEF0DF05950040D470EF324D96E000E62
:101A1000F420DA6EDF506BEC13F0030E5918D8A4E3
:101A200014EF0DF016EF0DF018EF0DF0000E576EDD
:101A30005950040D470EF324D96E000EF420DA6ECF
:101A4000DF5098EF0DF0D00E5A18D8A42AEF0DF001
:101A50002CEF0DF04AEF0DF05750D8A432EF0DF0F7
:101A600034EF0DF03FEF0DF05950040D480EF32404
:101A7000D96E000EF420DA6EDF506BEC13F0595083
:101A8000040D480EF324D96E000EF420DA6EDF50F8
:101A900098EF0DF0B00E5A18D8A451EF0DF053EF97
:101AA0000DF07CEF0DF0030E5918D8A45AEF0DF08D
:101AB0005CEF0DF05EEF0DF0010E576E5750D8A49D
:101AC00064EF0DF066EF0DF071EF0DF05950040D5D
:101AD000490EF324D96E000EF420DA6EDF506BEC61
:101AE00013F05950040D490EF324D96E000EF42062
:101AF000DA6EDF5098EF0DF05750D8A482EF0DF05A
:101B000084EF0DF08FEF0DF05950040D4A0EF324C1
:101B1000D96E000EF420DA6EDF506BEC13F05950E2
:101B2000040D4A0EF324D96E000EF420DA6EDF5055
:101B3000120021C019F022C01AF023C01BF024C0EB
:101B40001CF021C001F022C002F023C003F024C029
:101B500004F0F7EC10F001C00BF002C00CF0000E26
:101B60000CBEFF0E0D6E0E6E010EF6EC0EF00BC0ED
:101B70001DF00CC01EF00DC01FF00EC020F0DCECFC
:101B800013F019C043F01AC044F01BC045F01CC04C
:101B900046F043C001F044C002F045C003F046C027
:101BA00004F0000E056E000E066EC80E076E420EA3
:101BB000086E6FEC06F001C043F002C044F003C0B1
:101BC00045F004C046F0250E116E000E126E21C0C5
:101BD00001F022C002F023C003F024C004F0F7ECAF
:101BE00010F001C013F002C014F0000E166E0A0EC1
:101BF000156EFFEC13F0250E096E000E0A6E12EC46
:101C000013F01B0E096E080E0A6E12EC13F0340E60
:101C1000116E000E126E43C001F044C002F045C0C8
:101C200003F046C004F0F7EC10F001C013F002C05E
:101C300014F0000E166E0A0E156EFFEC13F0340E43
:101C4000096E000E0A6E12EC13F043C019F044C086
:101C50001AF045C01BF046C01CF043C001F044C060
:101C600002F045C003F046C004F0F7EC10F001C0EC
:101C70000BF002C00CF0000E0CBEFF0E0D6E0E6ECF
:101C8000010EF6EC0EF00BC01DF00CC01EF00DC0E6
:101C90001FF00EC020F0DCEC13F019C043F01AC0A6
:101CA00044F01BC045F01CC046F043C001F044C0E6
:101CB00002F045C003F046C004F0000E056E000EB1
:101CC000066EC80E076E420E086E6FEC06F001C07D
:101CD00043F002C044F003C045F004C046F0340EA7
:101CE000116E000E126E43C001F044C002F045C0F8
:101CF00003F046C004F0F7EC10F001C013F002C08E
:101D000014F0000E166E0A0E156EFFEC13F0340E72
:101D1000096E000E0A6E12EC13F043C019F044C0B5
:101D20001AF045C01BF046C01CF043C001F044C08F
:101D300002F045C003F046C004F0F7EC10F001C01B
:101D40000BF002C00CF0000E0CBEFF0E0D6E0E6EFE
:101D5000010EF6EC0EF00BC01DF00CC01EF00DC015
:101D60001FF00EC020F0DCEC13F019C043F01AC0D5
:101D700044F01BC045F01CC046F043C001F044C015
:101D800002F045C003F046C004F0000E056E000EE0
:101D9000066EC80E076E420E086E6FEC06F001C0AC
:101DA00043F002C044F003C045F004C046F0340ED6
:101DB000116E000E126E43C001F044C002F045C027
:101DC00003F046C004F0F7EC10F001C013F002C0BD
:101DD00014F0000E166E0A0E156EFFEC13F0340EA2
:101DE000096E000E0A6E12EC13F01200136E1350FF
:101DF000D8B4FDEF0EF0FFEF0EF021EF0FF00EBEA6
:101E000006EF0FF004EF0FF021EF0FF00BC00FF013
:101E10000CC010F00DC011F00EC012F00F1E101EFD
:101E2000111E121E0F2A000E1022112212220FC0A4
:101E300015F010C016F011C017F012C018F029EFFD
:101E40000FF00BC015F00CC016F00DC017F00EC04F
:101E500018F00B500C100D100E10D8A432EF0FF02C
:101E600034EF0FF03EEF0FF0000E0B6E000E0C6E15
:101E7000000E0D6E000E0E6ECFEF0FF0960E146E6C
:101E800048EF0FF0142AD890183217321632153254
:101E9000000E15140F6E000E1614106E000E17149F
:101EA000116EFE0E1814126E0F5010101110121039
:101EB000D8A45DEF0FF05FEF0FF042EF0FF06DEF82
:101EC0000FF0142A010E1526000E162217221822D2
:101ED000D8901832173216321532000E15140F6EC4
:101EE000000E1614106E000E1714116EFF0E18144B
:101EF000126E0F50101011101210D8A482EF0FF0B4
:101F000084EF0FF061EF0FF08CEF0FF01406D89014
:101F1000153616361736183617BE91EF0FF093EFB9
:101F20000FF09BEF0FF0020E146099EF0FF09BEF94
:101F30000FF086EF0FF014B0A0EF0FF0A2EF0FF04C
:101F4000A3EF0FF0179ED890143214C00FF0106A50
:101F5000116A126A0FC012F0116A106A0F6A0F50EC
:101F60001512105016121150171212501812135049
:101F7000D8B4BDEF0FF0BFEF0FF0C7EF0FF00EBEFC
:101F8000C6EF0FF0C4EF0FF0C7EF0FF0188E15C0BB
:101F90000BF016C00CF017C00DF018C00EF01200B8
:101FA0000DC0D9FF0EC0DAFFDF501A6E0D4A0E2A9F
:101FB000200E1A18D8B4DFEF0FF0E1EF0FF0D0EFDA
:101FC0000FF0090E1A18D8B4E8EF0FF0EAEF0FF08F
:101FD000D0EF0FF0000E166E000E176E000E186E8A
:101FE000000E196E000E156E2D0E1A18D8A4FBEFF8
:101FF0000FF0FDEF0FF008EF10F0152A0DC0D9FF1C
:102000000EC0DAFFDF501A6E0D4A0E2A37EF10F0BD
:102010002B0E1A18D8A40FEF10F011EF10F037EFB5
:1020200010F0FEEF0FF016C001F017C002F018C05C
:1020300003F019C004F00A0E056E000E066E000EC5
:10204000076E000E086EABEC12F01AC011F0D00E45
:10205000112611500124166E000E0220176E000E7C
:102060000320186E000E0420196EFEEF0FF01A50B8
:1020700076EC14F0D8B03FEF10F041EF10F013EF12
:1020800010F01550D8B447EF10F049EF10F064EF9E
:1020900010F016C011F017C012F018C013F019C0DC
:1020A00014F0111E121E131E141E112A000E1222ED
:1020B0001322142211C00DF012C00EF013C00FF045
:1020C00014C010F06CEF10F016C00DF017C00EF039
:1020D00018C00FF019C010F0120010C016F011C097
:1020E00017F012C018F013C019F016C001F017C095
:1020F00002F018C003F019C004F014C005F015C0B8
:1021000006F0000E06BEFF0E076E086EDBEC11F047
:1021100001C016F002C017F003C018F004C019F097
:102120000E4A0F2A1650171018101910D8A49BEF3A
:1021300010F09DEF10F075EF10F00EC0D9FF0FC03A
:10214000DAFF000EDF6E0E06D8A00F0610C001F0F9
:1021500011C002F012C003F013C004F014C005F067
:1021600015C006F0000E06BEFF0E076E086E2DECC1
:1021700012F001501A6E10C001F011C002F012C02E
:1021800003F013C004F014C005F015C006F0000EF3
:1021900006BEFF0E076E086EDBEC11F001C010F0FA
:1021A00002C011F003C012F004C013F0090E1A644B
:1021B000DCEF10F0DEEF10F0E0EF10F0070E1A2663
:1021C000300E1A260EC0D9FF0FC0DAFF1AC0DFFF8B
:1021D0000E06D8A00F061050111012101310D8A41C
:1021E000F4EF10F0F6EF10F0A6EF10F01200033449
:1021F00004340A6E0A50D8A400EF11F002EF11F077
:102200000CEF11F0000E016E000E026E000E036E58
:10221000000E046E79EF11F001C005F002C006F067
:1022200003C007F004C008F0200E1CEF11F0D89096
:102230000832073206320532E82E17EF11F005504A
:10224000096E038EFF0E0116FF0E0216FF0E031617
:10225000000E0416960E0A5E0ABE33EF11F031EF3F
:1022600011F049EF11F00A50800A970FD8B03BEFF8
:1022700011F03DEF11F03FEF11F002EF11F0D890A7
:1022800004320332023201320A3E3FEF11F061EFB5
:1022900011F01F0E0A644FEF11F051EF11F059EFDA
:1022A00011F002EF11F0D8900136023603360436F1
:1022B0000A060A50D8A45FEF11F061EF11F053EF56
:1022C00011F00950D8B467EF11F069EF11F071EF18
:1022D00011F0041E031E021E016C000E02220322D6
:1022E000042201C001F002C002F003C003F004C0E8
:1022F00004F012000AC00EF00BC00FF00EC001F087
:102300000FC002F00CC003F00DC004F071EC12F02D
:1023100001C00EF002C00FF0084A092A0E500F103B
:10232000D8A495EF11F097EF11F07EEF11F008C0EF
:10233000D9FF09C0DAFF000EDF6E0806D8A0090633
:102340000AC001F00BC002F00CC003F00DC004F095
:10235000E0EC12F00150106E0AC001F00BC002F068
:102360000CC003F00DC004F071EC12F001C00AF0D3
:1023700002C00BF0090E1064C0EF11F0C2EF11F0B3
:10238000C4EF11F0070E1026300E102608C0D9FF3A
:1023900009C0DAFF10C0DFFF0806D8A009060A50FE
:1023A0000B10D8A4D6EF11F0D8EF11F0A0EF11F078
:1023B000084A092A1200000E096E000E0A6E000E6D
:1023C0000B6E000E0C6E0550061007100810D8B4E6
:1023D000ECEF11F0EEEF11F024EF12F0010E0D6EA4
:1023E000F8EF11F0D89005360636073608360D2A74
:1023F00008AEFDEF11F0FFEF11F0F2EF11F0D89001
:1024000009360A360B360C360550015C0650025868
:102410000750035808500458D8A011EF12F013EFDA
:1024200012F01CEF12F00550015E0650025A0750E0
:10243000035A0850045A0980D890083207320632ED
:1024400005320D2EFFEF11F009C001F00AC002F0B5
:102450000BC003F00CC004F012000550061007106A
:102460000810D8B436EF12F038EF12F068EF12F01F
:10247000010E096E42EF12F0D89005360636073687
:102480000836092A08AE47EF12F049EF12F03CEF88
:1024900012F00550015C06500258075003580850CE
:1024A0000458D8A056EF12F058EF12F060EF12F077
:1024B0000550015E0650025A0750035A0850045A4C
:1024C000D8900832073206320532092E49EF12F051
:1024D00001C001F002C002F003C003F004C004F028
:1024E0001200000E066E000E056E03500410D8B4E4
:1024F0007CEF12F07EEF12F0A6EF12F0010E076EE5
:1025000086EF12F0D89003360436072A04AE8BEF1C
:1025100012F08DEF12F082EF12F0D89005360636E9
:102520000350015C04500258D8A099EF12F09BEFC1
:1025300012F0A0EF12F00350015E0450025A058021
:10254000D89004320332072E8DEF12F005C001F04F
:1025500006C002F01200000E096E000E0A6E000E98
:102560000B6E000E0C6E01A0B8EF12F0BAEF12F075
:10257000C2EF12F00550092606500A2207500B221E
:1025800008500C22D8900536063607360836D89003
:1025900004320332023201320150021003100410DF
:1025A000D8A4D5EF12F0D7EF12F0B3EF12F009C0B4
:1025B00001F00AC002F00BC003F00CC004F01200DE
:1025C00003500410D8B4E7EF12F0E9EF12F00DEF6A
:1025D00013F0010E056EF1EF12F0D89003360436B9
:1025E000052A04AEF6EF12F0F8EF12F0EDEF12F05C
:1025F0000350015C04500258D8A001EF13F003EF20
:1026000013F007EF13F00350015E0450025AD89004
:1026100004320332052EF8EF12F001C001F002C0BF
:1026200002F0120028EF13F009C0F6FF0AC0F7FF0E
:10263000F86A070EF76403D00800F55005D0F6CF0E
:10264000D9FFF7CFDAFFDF506BEC13F0094A0A2A03
:1026500009C0F6FF0AC0F7FFF86A070EF76403D057
:102660000800F55005D0F6CFD9FFF7CFDAFFDF50DD
:102670000009D8A43EEF13F040EF13F014EF13F06D
:10268000120020BE48EF13F046EF13F058EF13F09E
:102690001BC0D9FF1CC0DAFF2D0EDF6E1B4A1C2A9F
:1026A000201E1F1E1E1E1D6C000E1E221F22202219
:1026B0001BC00EF01CC00FF01DC010F01EC011F0AA
:1026C0001FC012F020C013F021C014F022C015F07A
:1026D0006DEC10F01200086E08C007F0F00E07163F
:1026E0008C500F0B07108C6E8C808C8200F08C92BB
:1026F000000E026E010E016EB7EC13F008C007F079
:10270000073AF00E07168C500F0B07108C6E8C8258
:1027100000F08C92000E026E030E016EB7EC13F007
:102720001200086E08C007F0F00E07168C500F0B51
:1027300007108C6E8C908C8200F08C92000E026ED2
:10274000010E016EB7EC13F008C007F0073AF00E67
:1027500007168C500F0B07108C6E8C8200F08C9239
:10276000000E026E030E016EB7EC13F01200000EA5
:10277000046E000E036ED0EF13F0000E066E000E16
:10278000056E054A062A065009E1A50E055CD8A08B
:10279000CCEF13F0CEEF13F0C1EF13F0034A042A8D
:1027A0000150035C02500458D8A0D9EF13F0DBEFBE
:1027B00013F0BDEF13F01200000E1D1A000E1E1ACA
:1027C000000E1F1A800E201A19C001F01AC002F064
:1027D0001BC003F01CC004F01DC005F01EC006F0B5
:1027E0001FC007F020C008F00FEC04F001C019F082
:1027F00002C01AF003C01BF004C01CF0120014BE8B
:1028000006EF14F004EF14F012EF14F011C0D9FF2A
:1028100012C0DAFF2D0EDF6E114A122A136C141E3D
:10282000D8B0142A11C008F012C009F013C00AF081
:1028300014C00BF015C00CF016C00DF07AEC11F0BE
:1028400012000E6E020E0E6028EF14F02AEF14F044
:1028500033EF14F00B500F0B80090F6E0F5091ECFB
:1028600013F03AEF14F00B500F0BC0090F6E0F501E
:1028700091EC13F00CC009F00DC00AF012EC13F04B
:10288000120001C007F002C008F04FEF14F007C0BB
:10289000D9FF08C0DAFF03C0DFFF074A082A050690
:1028A000D8A00606052806E10628D8A45AEF14F099
:1028B0005CEF14F047EF14F012004E0EF66E290E86
:1028C000F76E000EF86E00EE47F010EE10F0090003
:1028D000F5CFEEFFE550E150FAE15A6A596A586ABD
:1028E000576A000EF86E000184EF08F0036E000EC8
:1028F000026E3A0E03607FEF14F081EF14F08BEF5D
:1029000014F02F0E036487EF14F089EF14F08BEFAF
:1029100014F0010E026E02C001F001301200000E30
:10292000956E000E026E0F0E016EB7EC13F0020EE4
:1029300091EC13F0280E91EC13F0010E91EC13F0D2
:102940000C0E91EC13F0060E91EC13F012003738D8
:10295000392F3435362A3132332D20303D2B010EBC
:0629600091EC13F01200DF
:020000040020DA
:08000000FFFFFFFFFFFFFFFF00
:020000040030CA
:0E00000000091F1EFF0181FF0FC00FE00F401F
:00000001FF
