:020000040000FA
:040000002DEF15F0DB
:100800000043616C63756C61646F7261002B2C2D09
:100810002C2A2C2F004552524F52002E000004501B
:10082000800B0D6E045004240F6E03AE1AEF04F01B
:100830001CEF04F01DEF04F00F800F50D8B423EF2D
:1008400004F025EF04F03AEF04F00F28D8A42BEFC2
:1008500004F02DEF04F035EF04F0000E016E000EF1
:10086000026E000E036E000E046E038E000E046E08
:1008700042EF04F0000E016E000E026E000E036ED9
:10088000000E046E0850800B0E6E0D500E18D8B47A
:100890004CEF04F04EEF04F04FEF04F00D8C0850D5
:1008A00008240E6E07AE57EF04F059EF04F05AEF2C
:1008B00004F00E800E50D8B460EF04F062EF04F044
:1008C00077EF04F00E28D8A468EF04F06AEF04F084
:1008D00072EF04F0000E056E000E066E000E076E3D
:1008E000000E086E078E000E086E7FEF04F0000EFB
:1008F000056E000E066E000E076E000E086E0F509D
:100900000E5CD8B086EF04F088EF04F0AFEF04F08F
:100910000DAC8DEF04F08FEF04F091EF04F0800E3A
:100920000D1A0FC010F00EC00FF010C00EF001C075
:1009300010F005C001F010C005F002C010F006C0B4
:1009400002F010C006F003C010F007C003F010C0A2
:1009500007F004C010F008C004F010C008F0000E4A
:10096000106E0F500EC009F00A6A095E000E0A5A96
:100970000ABEC4EF04F00A5009E11A0E095CD8A0BF
:10098000C4EF04F0C6EF04F0FDEF04F001500210D4
:1009900003100410D8A4CFEF04F0D2EF04F0010E3E
:1009A000D3EF04F0000E106E000E016E000E026E0A
:1009B000000E036E000E046E0EC00FF006EF05F081
:1009C00010A0E5EF04F0E7EF04F0EDEF04F0D890AD
:1009D00010300109106EEFEF04F0D890103201A032
:1009E000F4EF04F0F6EF04F0F7EF04F0108E0434A7
:1009F00004320332023201320F2A0E500F5CD8A0AB
:100A000004EF05F006EF05F0E0EF04F00DBC0BEF8E
:100A100005F00DEF05F04DEF05F00F50D8A413EFE2
:100A200005F015EF05F01FEF05F0000E016E000E4A
:100A3000026E000E036E000E046E6EEF06F005509F
:100A4000012606500222075003220850042204A067
:100A50002CEF05F02EEF05F0DAEF05F010A033EFE4
:100A600005F035EF05F03BEF05F0D89010300109A7
:100A7000106E3DEF05F0D890103201A042EF05F066
:100A800044EF05F045EF05F0108E043404320332D4
:100A9000023201320F2ADAEF05F00550015C0650F0
:100AA0000258075003580450800A096E0850800A03
:100AB0000958D8B05EEF05F060EF05F08BEF05F058
:100AC0000150055C096E025006580A6E0350075823
:100AD0000B6E045008580C6EFF0E0924016EFF0EB9
:100AE0000A20026EFF0E0B20036EFF0E0C20046E18
:100AF000800E0D1A106C1050D8A481EF05F083EF12
:100B000005F093EF05F0010E0126000E02220322EC
:100B1000042293EF05F00550015E0650025A07507B
:100B2000035A0850045A0150021003100410D8A4AC
:100B30009CEF05F09EEF05F0D3EF05F01050D8A420
:100B4000A4EF05F0A6EF05F0D3EF05F0000E016E5F
:100B5000000E026E000E036E000E046E6EEF06F0C5
:100B6000D890013602360336043610AEBAEF05F0DF
:100B7000BCEF05F0BDEF05F0018010A0C2EF05F05D
:100B8000C4EF05F0C8EF05F0D8801036CAEF05F0C5
:100B9000D89010360F50D8B4D0EF05F0D2EF05F052
:100BA000D3EF05F00F0603AED8EF05F0DAEF05F04E
:100BB000B0EF05F0000E0E6E10AEE1EF05F0E3EFC2
:100BC00005F0FBEF05F010C009F07F0E0916D8B450
:100BD000ECEF05F0EEEF05F0F2EF05F0010E0E6E12
:100BE000FBEF05F001A0F7EF05F0F9EF05F0FBEFE3
:100BF00005F0EEEF05F00E50D8B401EF06F003EF6C
:100C000006F02EEF06F0010E0126000E022203224E
:100C1000042204A00EEF06F010EF06F02EEF06F00F
:100C200001C009F002C00AF003C00BF004C00CF0D0
:100C30000C340C320B320A32093209C001F00AC0FE
:100C400002F00BC003F00CC004F00F28D8B42BEF57
:100C500006F02DEF06F02EEF06F00F2A0F28D8B47D
:100C600034EF06F036EF06F03EEF06F00F50D8A452
:100C70003CEF06F03EEF06F050EF06F0000E016E7E
:100C8000000E026E000E036E000E046E0F50D8A40C
:100C90004CEF06F04EEF06F050EF06F0000E0D6E32
:100CA0000FA055EF06F057EF06F05AEF06F0038E4F
:100CB0005BEF06F0039ED8900F30046E0DAE63EF2D
:100CC00006F065EF06F066EF06F0048E01C001F055
:100CD00002C002F003C003F004C004F0120021C0FF
:100CE00019F022C01AF023C01BF024C01CF021C050
:100CF00001F022C002F023C003F024C004F0C7ECCE
:100D000011F001C00BF002C00CF0000E0CBEFF0E83
:100D10000D6E0E6E010EC6EC0FF00BC01DF00CC078
:100D20001EF00DC01FF00EC020F0ACEC14F019C086
:100D300043F01AC044F01BC045F01CC046F043C04D
:100D400001F044C002F045C003F046C004F0000EBC
:100D5000056E000E066E200E076E410E086E9CECAE
:100D600008F001C043F002C044F003C045F004C0E5
:100D700046F0250E116E000E126E21C001F022C049
:100D800002F023C003F024C004F0C7EC11F001C04E
:100D900013F002C014F0000E166E0A0E156ECFECA2
:100DA00014F0250E096E000E0A6EE2EC13F01B0E15
:100DB000096E080E0A6EE2EC13F0340E116E000E8E
:100DC000126E43C001F044C002F045C003F046C0BB
:100DD00004F0C7EC11F001C013F002C014F0000ED3
:100DE000166E0A0E156ECFEC14F0340E096E000E5E
:100DF0000A6EE2EC13F043C019F044C01AF045C08B
:100E00001BF046C01CF043C001F044C002F045C0D6
:100E100003F046C004F0C7EC11F001C00BF002C0B3
:100E20000CF0000E0CBEFF0E0D6E0E6E010EC6EC29
:100E30000FF00BC01DF00CC01EF00DC01FF00EC057
:100E400020F0ACEC14F019C043F01AC044F01BC001
:100E500045F01CC046F043C001F044C002F045C05C
:100E600003F046C004F0000E056E000E066E200E64
:100E7000076E410E086E9CEC08F001C043F002C002
:100E800044F003C045F004C046F0340E116E000E6D
:100E9000126E43C001F044C002F045C003F046C0EA
:100EA00004F0C7EC11F001C013F002C014F0000E02
:100EB000166E0A0E156ECFEC14F0340E096E000E8D
:100EC0000A6EE2EC13F043C019F044C01AF045C0BA
:100ED0001BF046C01CF043C001F044C002F045C006
:100EE00003F046C004F0C7EC11F001C00BF002C0E3
:100EF0000CF0000E0CBEFF0E0D6E0E6E010EC6EC59
:100F00000FF00BC01DF00CC01EF00DC01FF00EC086
:100F100020F0ACEC14F019C043F01AC044F01BC030
:100F200045F01CC046F043C001F044C002F045C08B
:100F300003F046C004F0000E056E000E066E200E93
:100F4000076E410E086E9CEC08F001C043F002C031
:100F500044F003C045F004C046F0340E116E000E9C
:100F6000126E43C001F044C002F045C003F046C019
:100F700004F0C7EC11F001C013F002C014F0000E31
:100F8000166E0A0E156ECFEC14F0340E096E000EBC
:100F90000A6EE2EC13F043C019F044C01AF045C0E9
:100FA0001BF046C01CF043C001F044C002F045C035
:100FB00003F046C004F0C7EC11F001C00BF002C012
:100FC0000CF0000E0CBEFF0E0D6E0E6E010EC6EC88
:100FD0000FF00BC01DF00CC01EF00DC01FF00EC0B6
:100FE00020F0ACEC14F019C043F01AC044F01BC060
:100FF00045F01CC046F043C001F044C002F045C0BB
:1010000003F046C004F0000E056E000E066E200EC2
:10101000076E410E086E9CEC08F001C043F002C060
:1010200044F003C045F004C046F0340E116E000ECB
:10103000126E43C001F044C002F045C003F046C048
:1010400004F0C7EC11F001C013F002C014F0000E60
:10105000166E0A0E156ECFEC14F0340E096E000EEB
:101060000A6EE2EC13F043C019F044C01AF045C018
:101070001BF046C01CF043C001F044C002F045C064
:1010800003F046C004F0C7EC11F001C00BF002C041
:101090000CF0000E0CBEFF0E0D6E0E6E010EC6ECB7
:1010A0000FF00BC01DF00CC01EF00DC01FF00EC0E5
:1010B00020F0ACEC14F019C043F01AC044F01BC08F
:1010C00045F01CC046F043C001F044C002F045C0EA
:1010D00003F046C004F0000E056E000E066E200EF2
:1010E000076E410E086E9CEC08F001C043F002C090
:1010F00044F003C045F004C046F0340E116E000EFB
:10110000126E43C001F044C002F045C003F046C077
:1011100004F0C7EC11F001C013F002C014F0000E8F
:10112000166E0A0E156ECFEC14F0340E096E000E1A
:101130000A6EE2EC13F012000450800B0D6E0450A6
:101140000424136E03AEA7EF08F0A9EF08F0AAEF8E
:1011500008F013801350D8B4B0EF08F0B2EF08F0E5
:10116000C5EF08F01328D8A4B8EF08F0BAEF08F0DC
:10117000C2EF08F0000E016E000E026E000E036E4C
:10118000000E046E038ECDEF08F0000E016E000E0F
:10119000026E000E036E000E046E0850800B0D1AD6
:1011A00008500824126E07AED8EF08F0DAEF08F006
:1011B000DBEF08F012801250D8B4E1EF08F0E3EF53
:1011C00008F0F6EF08F01228D8A4E9EF08F0EBEFEA
:1011D00008F0F3EF08F0000E056E000E066E000E2C
:1011E000076E000E086E078EFEEF08F0000E056E0B
:1011F000000E066E000E076E000E086E1250D8B478
:1012000004EF09F006EF09F00EEF09F01350D8A42F
:101210000CEF09F00EEF09F018EF09F0000E016E67
:10122000000E026E000E036E000E046EB0EF0AF0A8
:1012300007500102F3CF18F0F4CF19F018500E6EDA
:101240000F6A106A116A1950146E156A166A176AC5
:1012500006500202F3CF18F0F4CF19F018500E2602
:10126000000E0F221022112219501426000E1522F2
:101270001622172205500302F3CF18F0F4CF19F00D
:1012800018500E26000E0F2210221122195014267B
:10129000000E15221622172210C011F00FC010F0F8
:1012A0000EC00FF00E6A05500202F3CF18F0F4CF13
:1012B00019F018500E2619500F22000E1022000EA1
:1012C000112206500102F3CF18F0F4CF19F0185094
:1012D0000E2619500F22000E1022000E112210C0EF
:1012E00011F00FC010F00EC00FF00E6A0550010291
:1012F000F3CF18F0F4CF19F018500E2619500F2222
:10130000000E1022000E112207500202F3CF18F037
:10131000F4CF19F01850142619501522000E162279
:10132000000E172206500302F3CF18F0F4CF19F085
:101330001850142619501522000E1622000E1722DE
:1013400007500302F3CF18F0F4CF19F01850096ECC
:1013500019500A6E0B6A0C6A0BC00CF00AC00BF035
:1013600009C00AF0096A095014260A5015220B50C8
:1013700016220C5017220EC009F00FC00AF010C040
:101380000BF011C00CF0190ECBEF09F0D8900C3215
:101390000B320A320932E82EC6EF09F00950142642
:1013A0000A5015220B5016220C50172210C011F0B3
:1013B0000FC010F00EC00FF00E6A125013C009F0EB
:1013C0000A6A0926000E0A22820E0924186EFF0EF0
:1013D0000A20196E01EF0AF0D89014361536163629
:1013E000173611AEF6EF09F0F8EF09F0F9EF09F052
:1013F0001480D8900E360F36103611361806D8A045
:10140000190616AE06EF0AF008EF0AF0ECEF09F045
:10141000000E126E11AE0FEF0AF011EF0AF035EF69
:101420000AF0FF0E0E14096EFF0E0F140A6EFF0E67
:1014300010140B6E7F0E11140C6E09500A100B1055
:101440000C10D8B426EF0AF028EF0AF02CEF0AF0BF
:10145000010E126E35EF0AF014A031EF0AF033EFEF
:101460000AF035EF0AF028EF0AF01250D8B43BEF3B
:101470000AF03DEF0AF061EF0AF0010E1426000EAB
:1014800015221622172217A048EF0AF04AEF0AF099
:1014900061EF0AF014C009F015C00AF016C00BF095
:1014A00017C00CF00C340C320B320A32093209C06E
:1014B00014F00AC015F00BC016F00CC017F0184A53
:1014C000192A19BE6CEF0AF0195008E11828D8A0A3
:1014D0006CEF0AF06EEF0AF078EF0AF0000E146E6F
:1014E000000E156E800E166E7F0E176EA6EF0AF0B8
:1014F00019BE85EF0AF0195006E11804D8B083EF41
:101500000AF085EF0AF091EF0AF0000E146E000E5B
:10151000156E000E166E000E176E000E0D6EA6EF05
:101520000AF018C013F0FF0E1416FF0E15167F0EEA
:101530001616000E171613A0A0EF0AF0A2EF0AF07D
:10154000A3EF0AF0168ED8901330176E0D501712B5
:1015500014C001F015C002F016C003F017C004F06B
:101560001200000E0001856F000E846F000E7E6F6A
:10157000000E7F6F000E806F000E816F000E836F74
:10158000720ED36EF19E5FEC15F0000E0B6E010E25
:101590000C6E080E0D6E010EF1EC14F0000E0B6EC9
:1015A0000D0E0C6E080E0D6E020EF1EC14F0030E13
:1015B000026EE80E016E87EC14F07FEC15F0800EE1
:1015C00061EC14F059EC0EF00001926F000E026E07
:1015D0001E0E016E87EC14F0200E00019219D8B493
:1015E000F4EF0AF0F6EF0AF04EEF0CF02B0E921922
:1015F000D8B4FDEF0AF0FFEF0AF041EF0BF02D0E2B
:101600009219D8B406EF0BF008EF0BF041EF0BF096
:101610002F0E9219D8B40FEF0BF011EF0BF041EF32
:101620000BF02A0E9219D8B418EF0BF01AEF0BF04A
:1016300041EF0BF03D0E9219D8B421EF0BF023EFE0
:101640000BF041EF0BF08351D8A429EF0BF02BEFF7
:101650000BF037EF0BF0600E8425D96E000E85215C
:10166000DA6E92C0DFFF844B852B41EF0BF06A0EE0
:101670008425D96E000E8521DA6E92C0DFFF33EF2C
:101680000BF02B0E9219D8B448EF0BF04AEF0BF089
:1016900065EF0BF02D0E9219D8B451EF0BF053EF0C
:1016A0000BF065EF0BF02A0E9219D8B45AEF0BF03D
:1016B0005CEF0BF065EF0BF02F0E9219D8A463EFDF
:1016C0000BF065EF0BF06DEF0BF092C082F0000EA7
:1016D000856F000E846F010E836F3D0E9219D8A4A2
:1016E00074EF0BF076EF0BF082EF0CF0600E0D6EE6
:1016F000000E0E6EA0EC10F00DC08AF00EC08BF044
:101700000FC08CF010C08DF06A0E0D6E000E0E6EC4
:10171000A0EC10F00DC08EF00EC08FF00FC090F056
:1017200010C091F0C00E61EC14F038EF0CF08E5147
:101730008A25866F8F518B21876F90518C21886FFE
:1017400091518D21896F740E1B6E000E1C6E86C028
:101750001DF087C01EF088C01FF089C020F0000E69
:10176000226E0A0E216E11EC14F0740E096E000E3A
:101770000A6EE2EC13F082EF0CF08E518A5D866FF8
:101780008F518B59876F90518C59886F91518D591A
:10179000896FA3EF0BF08AC001F08BC002F08CC000
:1017A00003F08DC004F08EC005F08FC006F090C02D
:1017B00007F091C008F07BEC13F001C086F002C086
:1017C00087F003C088F004C089F0A3EF0BF08E51BE
:1017D0008F1190119111D8A4F0EF0BF0F2EF0BF0F4
:1017E000FCEF0BF07FEC15F0150E096E080E0A6E7B
:1017F000E2EC13F082EF0CF08AC00BF08BC00CF01F
:101800008CC00DF08DC00EF0000EC6EC0FF00BC0BA
:1018100019F00CC01AF00DC01BF00EC01CF08EC0E9
:101820000BF08FC00CF090C00DF091C00EF0000EC8
:10183000C6EC0FF00BC01DF00CC01EF00DC01FF069
:101840000EC020F08CEC0CF019C07EF01AC07FF0B6
:101850001BC080F01CC081F07EC021F07FC022F050
:1018600080C023F081C024F06FEC06F082EF0CF012
:10187000000182512A0AD8B4CBEF0BF0010AD8B488
:1018800097EF0BF0060AD8B4BDEF0BF0020AD8B4FC
:10189000E7EF0BF04CEF0CF082EF0CF07FEC15F063
:1018A000000E026E0A0E016E87EC14F0600E016EDF
:1018B000000E026E000E046E000E036E000E066E29
:1018C0000A0E056E11EC15F06A0E016E000E026E26
:1018D000000E046E000E036E000E066E0A0E056EFC
:1018E00011EC15F0740E016E000E026E000E046E07
:1018F000000E036E000E066E0A0E056E11EC15F05A
:101900008AEF0CF0000E026E010E016E87EC14F0EF
:10191000E2EF0AF000EF00F01C50800B296E1C5023
:101920001C24306E1BAE97EF0CF099EF0CF09AEF81
:101930000CF030803050D8B4A0EF0CF0A2EF0CF0D7
:10194000B7EF0CF03028D8A4A8EF0CF0AAEF0CF0F9
:10195000B2EF0CF0000E196E000E1A6E000E1B6E28
:10196000000E1C6E1B8E000E1C6EBFEF0CF0000EE6
:10197000196E000E1A6E000E1B6E000E1C6E2050AB
:10198000800B291A20502024316E1FAECAEF0CF0B4
:10199000CCEF0CF0CDEF0CF031803150D8B4D3EF58
:1019A0000CF0D5EF0CF0EAEF0CF03128D8A4DBEF07
:1019B0000CF0DDEF0CF0E5EF0CF0000E1D6E000EEC
:1019C0001E6E000E1F6E000E206E1F8E000E206E0B
:1019D000F2EF0CF0000E1D6E000E1E6E000E1F6E5C
:1019E000000E206E1D501E101F102010D8A4FBEFFB
:1019F0000CF0FDEF0CF015EF0DF0000E196E000E5F
:101A00001A6E000E1B6E000E1C6E800E1B127F0ED7
:101A10001C1229501C1219C019F01AC01AF01BC050
:101A20001BF01CC01CF058EF0EF03050D8A41BEF78
:101A30000DF01DEF0DF027EF0DF0000E196E000EEA
:101A40001A6E000E1B6E000E1C6E58EF0EF0315019
:101A500030C021F0226A215E000E225A7F0E21241E
:101A60002A6E000E22202B6E19C025F01AC026F017
:101A70001BC027F01CC028F0000E196E000E1A6E55
:101A8000000E1B6E000E1C6E000E2C6E000E2D6ED6
:101A9000000E2E6E000E2F6E000E316E88EF0DF0D0
:101AA0003150D8B456EF0DF058EF0DF06FEF0DF048
:101AB000D8902536263627362836D89019361A3645
:101AC0001B361C362FAE67EF0DF069EF0DF06AEF95
:101AD0000DF01980D8902C362D362E362F361D500D
:101AE000255C1E5026581F50275820502858D8A033
:101AF0007CEF0DF07EEF0DF087EF0DF02F8C1D5079
:101B0000255E1E50265A1F50275A2050285A312A27
:101B1000190E31648EEF0DF090EF0DF050EF0DF0D7
:101B20002550261027102810D8B499EF0DF09BEF00
:101B30000DF0B3EF0DF02C80B3EF0DF0D890193607
:101B40001A361B361C362FAEA8EF0DF0AAEF0DF09B
:101B5000ABEF0DF01980D8902C362D362E362F365F
:101B60002A06D8A02B061BAEB8EF0DF0BAEF0DF089
:101B70009EEF0DF0000E316E2FAEC1EF0DF0C3EFF2
:101B80000DF0E7EF0DF0FF0E2C14216EFF0E2D145B
:101B9000226EFF0E2E14236E7F0E2F14246E215002
:101BA000221023102410D8B4D8EF0DF0DAEF0DF086
:101BB000DEEF0DF0010E316EE7EF0DF019A0E3EF4F
:101BC0000DF0E5EF0DF0E7EF0DF0DAEF0DF031502D
:101BD000D8B4EDEF0DF0EFEF0DF013EF0EF0010EB6
:101BE0001926000E1A221B221C221CA0FAEF0DF04F
:101BF000FCEF0DF013EF0EF019C021F01AC022F027
:101C00001BC023F01CC024F024342432233222329F
:101C1000213221C019F022C01AF023C01BF024C0C9
:101C20001CF02A4A2B2A2BBE1EEF0EF02B5008E187
:101C30002A28D8A01EEF0EF020EF0EF02BEF0EF0AA
:101C4000000E2B6E2A68000E196E000E1A6E000E22
:101C50001B6E000E1C6E2BBE38EF0EF02B5006E1F3
:101C60002A04D8B036EF0EF038EF0EF046EF0EF043
:101C7000000E2B6E000E2A6E000E196E000E1A6EEC
:101C8000000E1B6E000E1C6E000E296E2AC030F076
:101C900030A04DEF0EF04FEF0EF052EF0EF01B8E16
:101CA00053EF0EF01B9ED89030301C6E09EF0DF0F4
:101CB0001200F00E936EF00E8A6E8150F00B5A6E89
:101CC000F00E5A18D8A467EF0EF069EF0EF05DEF32
:101CD0000EF08150F00B5A6EF00E5A18D8A473EF24
:101CE0000EF075EF0EF05DEF0EF0F00E8A6E815083
:101CF000F00B5A6EF00E5A18D8B481EF0EF083EF45
:101D00000EF077EF0EF08150F00B5A6EF00E5A186D
:101D1000D8B48DEF0EF08FEF0EF077EF0EF0000ECF
:101D2000026E140E016E87EC14F08150F00B5A6EA7
:101D3000FE0E8A6E8150F00B5A6E5AC058F0F00EAB
:101D40005A18D8B4A6EF0EF0A8EF0EF0BAEF0EF0C6
:101D5000000E596EAFEF0EF08150F00B586EF00E82
:101D60005818D8A4B6EF0EF0B8EF0EF0ACEF0EF0A6
:101D70001EEF0FF0FD0E8A6E8150F00B5A6E5AC0A6
:101D800058F0F00E5A18D8B4C8EF0EF0CAEF0EF0A3
:101D9000DCEF0EF0010E596ED1EF0EF08150F00B1A
:101DA000586EF00E5818D8A4D8EF0EF0DAEF0EF0F7
:101DB000CEEF0EF01EEF0FF0FB0E8A6E8150F00B8F
:101DC0005A6E5AC058F0F00E5A18D8B4EAEF0EF016
:101DD000ECEF0EF0FEEF0EF0020E596EF3EF0EF088
:101DE0008150F00B586EF00E5818D8A4FAEF0EF090
:101DF000FCEF0EF0F0EF0EF01EEF0FF0F70E8A6E14
:101E00008150F00B5A6E5AC058F0F00E5A18D8B4E0
:101E10000CEF0FF00EEF0FF098EF0EF0030E596E6F
:101E200015EF0FF08150F00B586EF00E5818D8A433
:101E30001CEF0FF01EEF0FF012EF0FF0E00E5A182C
:101E4000D8A425EF0FF027EF0FF050EF0FF0575009
:101E5000D8A42DEF0FF02FEF0FF03AEF0FF05950FD
:101E6000040D470EF324D96E000EF420DA6EDF5015
:101E70003BEC14F0030E5918D8A441EF0FF043EFD8
:101E80000FF045EF0FF0000E576E5950040D470E3E
:101E9000F324D96E000EF420DA6EDF50C5EF0FF098
:101EA000D00E5A18D8A457EF0FF059EF0FF077EF74
:101EB0000FF05750D8A45FEF0FF061EF0FF06CEF09
:101EC0000FF05950040D480EF324D96E000EF42083
:101ED000DA6EDF503BEC14F05950040D480EF32439
:101EE000D96E000EF420DA6EDF50C5EF0FF0B00EA1
:101EF0005A18D8A47EEF0FF080EF0FF0A9EF0FF083
:101F0000030E5918D8A487EF0FF089EF0FF08BEF6D
:101F10000FF0010E576E5750D8A491EF0FF093EFCA
:101F20000FF09EEF0FF05950040D490EF324D96EB7
:101F3000000EF420DA6EDF503BEC14F05950040D23
:101F4000490EF324D96E000EF420DA6EDF50C5EF8F
:101F50000FF05750D8A4AFEF0FF0B1EF0FF0BCEF78
:101F60000FF05950040D4A0EF324D96E000EF420E0
:101F7000DA6EDF503BEC14F05950040D4A0EF32496
:101F8000D96E000EF420DA6EDF501200136E13507B
:101F9000D8B4CDEF0FF0CFEF0FF0F1EF0FF00EBE92
:101FA000D6EF0FF0D4EF0FF0F1EF0FF00BC00FF002
:101FB0000CC010F00DC011F00EC012F00F1E101E5C
:101FC000111E121E0F2A000E1022112212220FC003
:101FD00015F010C016F011C017F012C018F0F9EF8C
:101FE0000FF00BC015F00CC016F00DC017F00EC0AE
:101FF00018F00B500C100D100E10D8A402EF10F0BA
:1020000004EF10F00EEF10F0000E0B6E000E0C6ED1
:10201000000E0D6E000E0E6E9FEF10F0960E146EF9
:1020200018EF10F0142AD8901832173216321532E1
:10203000000E15140F6E000E1614106E000E1714FD
:10204000116EFE0E1814126E0F5010101110121097
:10205000D8A42DEF10F02FEF10F012EF10F03DEF9D
:1020600010F0142A010E1526000E1622172218222F
:10207000D8901832173216321532000E15140F6E22
:10208000000E1614106E000E1714116EFF0E1814A9
:10209000126E0F50101011101210D8A452EF10F041
:1020A00054EF10F031EF10F05CEF10F01406D89000
:1020B000153616361736183617BE61EF10F063EF77
:1020C00010F06BEF10F0020E146069EF10F06BEF80
:1020D00010F056EF10F014B070EF10F072EF10F037
:1020E00073EF10F0179ED890143214C00FF0106ADE
:1020F000116A126A0FC012F0116A106A0F6A0F504B
:1021000015121050161211501712125018121350A7
:10211000D8B48DEF10F08FEF10F097EF10F00EBEE7
:1021200096EF10F094EF10F097EF10F0188E15C0A6
:102130000BF016C00CF017C00DF018C00EF0120016
:102140000DC0D9FF0EC0DAFFDF501A6E0D4A0E2AFD
:10215000200E1A18D8B4AFEF10F0B1EF10F0A0EFC6
:1021600010F0090E1A18D8B4B8EF10F0BAEF10F04A
:10217000A0EF10F0000E166E000E176E000E186E17
:10218000000E196E000E156E2D0E1A18D8A4CBEF86
:1021900010F0CDEF10F0D8EF10F0152A0DC0D9FFD8
:1021A0000EC0DAFFDF501A6E0D4A0E2A07EF11F04B
:1021B0002B0E1A18D8A4DFEF10F0E1EF10F007EFA4
:1021C00011F0CEEF10F016C001F017C002F018C0E9
:1021D00003F019C004F00A0E056E000E066E000E24
:1021E000076E000E086E7BEC13F01AC011F0D00ED3
:1021F000112611500124166E000E0220176E000EDB
:102200000320186E000E0420196ECEEF10F01A5045
:1022100046EC15F0D8B00FEF11F011EF11F0E3EF2D
:1022200010F01550D8B417EF11F019EF11F034EF8A
:1022300011F016C011F017C012F018C013F019C039
:1022400014F0111E121E131E141E112A000E12224B
:102250001322142211C00DF012C00EF013C00FF0A3
:1022600014C010F03CEF11F016C00DF017C00EF0C6
:1022700018C00FF019C010F0120010C016F011C0F5
:1022800017F012C018F013C019F016C001F017C0F3
:1022900002F018C003F019C004F014C005F015C016
:1022A00006F0000E06BEFF0E076E086EABEC12F0D5
:1022B00001C016F002C017F003C018F004C019F0F6
:1022C0000E4A0F2A1650171018101910D8A46BEFC9
:1022D00011F06DEF11F045EF11F00EC0D9FF0FC0F6
:1022E000DAFF000EDF6E0E06D8A00F0610C001F058
:1022F00011C002F012C003F013C004F014C005F0C6
:1023000015C006F0000E06BEFF0E076E086EFDEC4F
:1023100012F001501A6E10C001F011C002F012C08C
:1023200003F013C004F014C005F015C006F0000E51
:1023300006BEFF0E076E086EABEC12F001C010F087
:1023400002C011F003C012F004C013F0090E1A64A9
:10235000ACEF11F0AEEF11F0B0EF11F0070E1A264E
:10236000300E1A260EC0D9FF0FC0DAFF1AC0DFFFE9
:102370000E06D8A00F061050111012101310D8A47A
:10238000C4EF11F0C6EF11F076EF11F01200033434
:1023900004340A6E0A50D8A4D0EF11F0D2EF11F035
:1023A000DCEF11F0000E016E000E026E000E036EE7
:1023B000000E046E49EF12F001C005F002C006F0F5
:1023C00003C007F004C008F0200EECEF11F0D89025
:1023D0000832073206320532E82EE7EF11F00550D9
:1023E000096E038EFF0E0116FF0E0216FF0E031676
:1023F000000E0416960E0A5E0ABE03EF12F001EFFD
:1024000012F019EF12F00A50800A970FD8B00BEFB4
:1024100012F00DEF12F00FEF12F0D2EF11F0D89092
:1024200004320332023201320A3E0FEF12F031EF72
:1024300012F01F0E0A641FEF12F021EF12F029EFC5
:1024400012F0D2EF11F0D89001360236033604367E
:102450000A060A50D8A42FEF12F031EF12F023EF42
:1024600012F00950D8B437EF12F039EF12F041EF03
:1024700012F0041E031E021E016C000E0222032233
:10248000042201C001F002C002F003C003F004C046
:1024900004F012000AC00EF00BC00FF00EC001F0E5
:1024A0000FC002F00CC003F00DC004F041EC13F0BB
:1024B00001C00EF002C00FF0084A092A0E500F109A
:1024C000D8A465EF12F067EF12F04EEF12F008C0DB
:1024D000D9FF09C0DAFF000EDF6E0806D8A0090692
:1024E0000AC001F00BC002F00CC003F00DC004F0F4
:1024F000B0EC13F00150106E0AC001F00BC002F0F6
:102500000CC003F00DC004F041EC13F001C00AF060
:1025100002C00BF0090E106490EF12F092EF12F06F
:1025200094EF12F0070E1026300E102608C0D9FFC7
:1025300009C0DAFF10C0DFFF0806D8A009060A505C
:102540000B10D8A4A6EF12F0A8EF12F070EF12F063
:10255000084A092A1200000E096E000E0A6E000ECB
:102560000B6E000E0C6E0550061007100810D8B444
:10257000BCEF12F0BEEF12F0F4EF12F0010E0D6E90
:10258000C8EF12F0D89005360636073608360D2A01
:1025900008AECDEF12F0CFEF12F0C2EF12F0D890EC
:1025A00009360A360B360C360550015C06500258C7
:1025B0000750035808500458D8A0E1EF12F0E3EF99
:1025C00012F0ECEF12F00550015E0650025A07506F
:1025D000035A0850045A0980D8900832073206324C
:1025E00005320D2ECFEF12F009C001F00AC002F043
:1025F0000BC003F00CC004F01200055006100710C9
:102600000810D8B406EF13F008EF13F038EF13F00A
:10261000010E096E12EF13F0D89005360636073614
:102620000836092A08AE17EF13F019EF13F00CEF74
:1026300013F00550015C065002580750035808502B
:102640000458D8A026EF13F028EF13F030EF13F062
:102650000550015E0650025A0750035A0850045AAA
:10266000D8900832073206320532092E19EF13F0DE
:1026700001C001F002C002F003C003F004C004F086
:102680001200000E066E000E056E03500410D8B442
:102690004CEF13F04EEF13F076EF13F0010E076ED0
:1026A00056EF13F0D89003360436072A04AE5BEFDA
:1026B00013F05DEF13F052EF13F0D89005360636A5
:1026C0000350015C04500258D8A069EF13F06BEF7F
:1026D00013F070EF13F00350015E0450025A0580AE
:1026E000D89004320332072E5DEF13F005C001F0DD
:1026F00006C002F01200000E096E000E0A6E000EF7
:102700000B6E000E0C6E01A088EF13F08AEF13F031
:1027100092EF13F00550092606500A2207500B22AB
:1027200008500C22D8900536063607360836D89061
:10273000043203320232013201500210031004103D
:10274000D8A4A5EF13F0A7EF13F083EF13F009C09F
:1027500001F00AC002F00BC003F00CC004F012003C
:1027600003500410D8B4B7EF13F0B9EF13F0DDEF56
:1027700013F0010E056EC1EF13F0D8900336043646
:10278000052A04AEC6EF13F0C8EF13F0BDEF13F047
:102790000350015C04500258D8A0D1EF13F0D3EFDE
:1027A00013F0D7EF13F00350015E0450025AD89093
:1027B00004320332052EC8EF13F001C001F002C04D
:1027C00002F01200F8EF13F009C0F6FF0AC0F7FF9D
:1027D000F86A070EF76403D00800F55005D0F6CF6D
:1027E000D9FFF7CFDAFFDF503BEC14F0094A0A2A91
:1027F00009C0F6FF0AC0F7FFF86A070EF76403D0B6
:102800000800F55005D0F6CFD9FFF7CFDAFFDF503B
:102810000009D8A40EEF14F010EF14F0E4EF13F059
:10282000120020BE18EF14F016EF14F028EF14F089
:102830001BC0D9FF1CC0DAFF2D0EDF6E1B4A1C2AFD
:10284000201E1F1E1E1E1D6C000E1E221F22202277
:102850001BC00EF01CC00FF01DC010F01EC011F008
:102860001FC012F020C013F021C014F022C015F0D8
:102870003DEC11F01200086E08C007F0F00E0716CC
:102880008C500F0B07108C6E8C808C8200F08C9219
:10289000000E026E010E016E87EC14F008C007F006
:1028A000073AF00E07168C500F0B07108C6E8C82B7
:1028B00000F08C92000E026E030E016E87EC14F095
:1028C0001200086E08C007F0F00E07168C500F0BB0
:1028D00007108C6E8C908C8200F08C92000E026E31
:1028E000010E016E87EC14F008C007F0073AF00EF5
:1028F00007168C500F0B07108C6E8C8200F08C9298
:10290000000E026E030E016E87EC14F01200000E32
:10291000046E000E036EA0EF14F0000E066E000EA3
:10292000056E054A062A065009E1A50E055CD8A0E9
:102930009CEF14F09EEF14F091EF14F0034A042A78
:102940000150035C02500458D8A0A9EF14F0ABEF7B
:1029500014F08DEF14F01200000E1D1A000E1E1A56
:10296000000E1F1A800E201A19C001F01AC002F0C2
:102970001BC003F01CC004F01DC005F01EC006F013
:102980001FC007F020C008F00FEC04F001C019F0E0
:1029900002C01AF003C01BF004C01CF0120014BEE9
:1029A000D6EF14F0D4EF14F0E2EF14F011C0D9FF19
:1029B00012C0DAFF2D0EDF6E114A122A136C141E9C
:1029C000D8B0142A11C008F012C009F013C00AF0E0
:1029D00014C00BF015C00CF016C00DF04AEC12F04C
:1029E00012000E6E020E0E60F8EF14F0FAEF14F003
:1029F00003EF15F00B500F0B80090F6E0F5061ECB9
:102A000014F00AEF15F00B500F0BC0090F6E0F50AA
:102A100061EC14F00CC009F00DC00AF0E2EC13F008
:102A2000120001C007F002C008F01FEF15F007C048
:102A3000D9FF08C0DAFF03C0DFFF074A082A0506EE
:102A4000D8A00606052806E10628D8A42AEF15F026
:102A50002CEF15F017EF15F01200EE0EF66E2A0EA1
:102A6000F76E000EF86E00EE47F010EE10F0090061
:102A7000F5CFEEFFE550E150FAE15A6A596A586A1B
:102A8000576A000EF86E0001B1EF0AF0036E000EF7
:102A9000026E3A0E03604FEF15F051EF15F05BEF49
:102AA00015F02F0E036457EF15F059EF15F05BEF9B
:102AB00015F0010E026E02C001F001301200000E8E
:102AC000956E000E026E0F0E016E87EC14F0020E72
:102AD00061EC14F0280E61EC14F0010E61EC14F0BE
:102AE0000C0E61EC14F0060E61EC14F012003132A1
:102AF000332B3435362D3738392A20303D2F010E0F
:062B000061EC14F012006C
:020000040020DA
:08000000FFFFFFFFFFFFFFFF00
:020000040030CA
:0E00000000091F1EFF0181FF0FC00FE00F401F
:00000001FF
